:100000000C940D020C943E020C943E020C943E02A1
:100010000C943E020C943E020C943E020C943E0260
:100020000C943E020C943E020C943E020C943E0250
:100030000C943E020C943E020C943E020C943E0240
:100040000C94C3030C943E020C943E020C943E02AA
:100050000C949E030C9462030C943E020C942808AA
:100060000C943E020C94520C0C94420D0C943E02E3
:100070000C943E020C943E020C943E020C943E0200
:100080000C943E020C943E020C943E020C943E02F0
:100090000C94860C0C94810D0C943E020C943E0240
:1000A0000C943E020C943E020C943E020C943E02D0
:1000B0000C943E020C943E020C943E020C943E02C0
:1000C0000C943E020C943E020C943E020C94BA0C2A
:1000D0000C94C00D0C943E020C94EE0C0C94FF0D8D
:1000E0000C943E023009330926092A096A093709A6
:1000F0003B094109450949094F09530957096A094B
:100100005D09610965090C94B70B0C94D00B0C9434
:100110006A090C9461090C9441090C943B090C94F4
:1001200037090C9453090C942A090C94DA090C949D
:1001300030090C9465090C94210D0C94D7050C948E
:1001400049090C9433090C9426090C94F00B0C9477
:10015000A70B0C9445090C945D090C940E0F0C949C
:100160004F090C94FB0B0C945709302C2D2D204774
:1001700050532E7061727365284750532E6C617313
:10018000744E4D4541282929206661696C65642EAD
:100190002E2E002F3230002F002C20002E003A008F
:1001A0003A00302C2D204E4D454120706172736510
:1001B000643A2000302C2D204750532E706172730A
:1001C00065284750532E6C6173744E4D4541282964
:1001D00029206661696C65642E2E2E00302C205714
:1001E000616974696E6720666F7220505053207386
:1001F00069676E616C732E2E2E00302C2D20436F9C
:100200006E66696775726174696F6E20616C6C20CF
:10021000646F6E652E00302C2D2D20537461727426
:10022000696E672054696D65723120776974682042
:100230004F56462F4341505455524520696E7465C0
:100240007272757074732E2E2E00646F6E652E00A0
:10025000302C2D2D2053656E64696E6720696E69A0
:100260007469616C69736520636F6D6D616E642084
:10027000746F204750532E2E2E00302C2D20436FAC
:100280006E6669677572696E6720475053206D6F9F
:1002900064756C652E2E2E0A00302C2D20436F6E57
:1002A0006669677572696E6720444151207379737E
:1002B00074656D2E2E2E00302C576972656C657337
:1002C00073204441512053797374656D2076312E2B
:1002D000302E2E2E000000090A02080B0C0D070616
:1002E0000304010000000000000000000000000006
:1002F00000000000000000000000000000000000FE
:100300000011100F000000000000000000000000BD
:10031000000000000000000000000001021020208A
:100320000808102040102040800201020108040249
:1003300001010204081020408080402010080402BF
:100340000180040201804020100804020108040218
:10035000010102040810204080010204081020401E
:100360008005050505070508080808020202020ABB
:100370000A08080404040401010101010101010348
:1003800003030303030303040707070C0C0C0C0C03
:100390000C0C0C0202020206060606060606060BF6
:1003A0000B0B0B0B0B0B0B00002200250028002B66
:1003B000002E003100340002010000050108010B8D
:1003C0000100002100240027002A002D0030003306
:1003D0000001010000040107010A014E414E494E8F
:1003E000495459494E46CDCCCC3D0AD7233C17B78A
:1003F000D13877CC2B329595E6241FB14F0A0000F7
:1004000020410000C84200401C4620BCBE4CCA1B14
:100410000E5AAEC59D74D7050E0F11241FBECFEF27
:10042000D1E2DEBFCDBF00E00CBF13E0A0E0B2E040
:10043000EAE0F1E300E00BBF02C007900D92AC359B
:10044000B107D9F727E0ACE5B3E001C01D92A337AF
:10045000B207E1F714E0CAE1D4E000E006C0229759
:100460000109FE010BBF0E946B18C631D10780E065
:100470000807A9F70E949A0B0C943A140C940000F8
:100480008EBD0DB407FEFDCF8EB508950895AF92D1
:10049000BF92CF92DF92EF92FF920F931F93CF9371
:1004A000DF938B017A01E90180E0C82E82E0D82E2B
:1004B00060E0D6018C910E94A4098BE00E9440026A
:1004C0008EE00E94400280E00E944002A82EB12CE3
:1004D000F801B182A08280E00E944002E82FF0E0A3
:1004E000FE2FEE27EA0DFB1DD801ED93FC9380E073
:1004F0000E944002082F10E0F7011183008380E082
:100500000E944002682F70E0762F6627600F711FEF
:10051000D7016D937C9380E00E944002082F10E089
:100520001983088380E00E944002482F50E0542F36
:100530004427400F511F5983488361E0F6018081B1
:10054000DF91CF911F910F91FF90EF90DF90CF90AF
:10055000BF90AF900C94A4091F93CF93DF93162FF5
:10056000C0E0D2E060E088810E94A4098BE00E9494
:100570004002812F0E94400280E00E944002182F1A
:1005800061E088810E94A409812FDF91CF911F91A2
:1005900008950F931F93CF93DF938C01C7E3D2E8A5
:1005A0006BE0C8010E94AC0280FD05C02197209736
:1005B00021F00000F5CF80E001C081E0DF91CF9114
:1005C0001F910F910895EF92FF921F93CF93DF93A6
:1005D0001F92CDB7DEB7162FB0E0EB2EB2E0FB2EA8
:1005E00060E0F701808149830E94A4098AE00E94AB
:1005F0004002812F0E9440024981842F0E944002C4
:1006000061E0F70180810F90DF91CF911F91FF9002
:10061000EF900C94A409CF93DF93EC01862F6093A5
:1006200000027093010261E00E946B090E94441075
:1006300080E00E945A1082E00E945F1068EE73E032
:1006400080E090E00E94930842E56FE1CE010E94B5
:10065000E30264EF71E080E090E00E94930845E8D7
:100660006CE2CE010E94E30264EF71E080E090E072
:100670000E94930840E26DE2CE01DF91CF910C948D
:10068000E302CF93DF93EC016DE20E94AC02482FAE
:1006900042606DE2CE010E94E3026AE070E080E019
:1006A00090E0DF91CF910C9493088FEA87BD8EE69E
:1006B00087BDEEE6F0E080818260808381E08093F8
:1006C0008A0308951F920F920FB60F9211240BB652
:1006D0000F922F933F934F935F936F937F938F93DB
:1006E0009F93AF93BF93EF93FF938BE893E00E94A8
:1006F0007A1290916A03992319F081118093C600B0
:10070000FF91EF91BF91AF919F918F917F916F91E9
:100710005F914F913F912F910F900BBE0F900FBEA5
:100720000F901F90189581110C94550380916E00C5
:100730008D7F80936E0010928A0308951F920F920E
:100740000FB60F9211248F939F93AF93BF93809115
:10075000860390918703A0918803B0918903019645
:10076000A11DB11D8093860390938703A0938803F6
:10077000B0938903BF91AF919F918F910F900FBE5E
:100780000F901F9018951F920F920FB60F92112481
:100790008F939F93AF93BF93809186009091870032
:1007A0009093850380938403B09B06C0809184035B
:1007B0009091850397FF09C08091860390918703EC
:1007C000A0918803B09189030BC08091860390911A
:1007D0008703A0918803B09189030196A11DB11DE3
:1007E0008093800390938103A0938203B09383034B
:1007F000809184039091850390937F0380937E037F
:1008000081E080937303BF91AF919F918F910F907F
:100810000FBE0F901F9018950F931F936091800348
:1008200070918103809182039091830300916F0303
:10083000109170032091710330917203601B710B52
:10084000820B930B0E940C1520E030E04AEB52E43F
:100850000E94D714881F8827881F1F910F91089521
:1008600065E370E089E693E00E940B0389E693E07C
:100870000E94410364E072E089E394E00C946C0A06
:10088000CF93DF93CDB7DEB727970FB6F894DEBFCF
:100890000FBECDBF40E052EC61E070E089E394E030
:1008A0000E943E0E67EB72E089E394E00E945A0AD0
:1008B00069E972E089E394E00E945A0A60E875E20F
:1008C0008BE893E00E9438136AE772E089E394E0D2
:1008D0000E94180A60E572E089E394E00E94180A19
:1008E0000E94550362E272E08BE893E00E944A1393
:1008F00064E572E08BE893E00E944A136AE472E0D8
:1009000089E394E00E945A0A66E172E089E394E088
:100910000E945A0A1092800081EC8093810010920C
:100920008200109285001092840081E280936F0013
:100930006AEF71E089E394E00E945A0A6CED71E07D
:1009400089E394E00E945A0A80916B0390916C03B2
:100950008330910580F5209173032130E1F71092E7
:100960007303019690936C0380936B0365E672E0CA
:1009700089E394E00E943D0A60916B0370916C03DF
:100980004AE050E089E394E00E946C0B69E772E072
:1009900089E394E00E943D0A4AE050E063E070E0A1
:1009A00089E394E00E94210B6BE772E089E394E015
:1009B0000E946C0AC9CF6DE772E089E394E00E945F
:1009C0006C0A67E872E089E394E00E946C0A809107
:1009D0006B0390916C03059708F0ADC08BE893E032
:1009E0000E945313882309F495C08BE893E00E947A
:1009F0005613BC018BE893E00E946D10811107C073
:100A000064EB71E089E394E00E945A0A83C080910C
:100A10008E03825E8F8380918F038E8380919003FB
:100A20008D8380918B038B8380918C038A8380914B
:100A30008D038983CE0101960E945D136093740338
:100A400070937503809376039093770362EA71E065
:100A500089E394E00E94180A4AE050E060918B0319
:100A600089E394E00E944E0B60EA71E089E394E030
:100A70000E94180A4AE050E060918C0389E394E0F8
:100A80000E944E0B6EE971E089E394E00E94180A1F
:100A90004AE050E060918D0389E394E00E944E0BA0
:100AA0006CE971E089E394E00E94180A6091910377
:100AB000709192034AE050E089E394E00E946C0B4D
:100AC00069E971E089E394E00E94180A4AE050E085
:100AD0006091900389E394E00E944E0B67E971E016
:100AE00089E394E00E94180A4AE050E060918F0385
:100AF00089E394E00E944E0B63E971E089E394E09E
:100B00000E94180A4AE050E060918E0389E394E065
:100B10000E94550B80917303813009F058CF1092D9
:100B2000730380916B0390916C03019690936C0317
:100B300080936B034CCF6DE772E089E394E00E94F1
:100B40006C0A64E670E080E090E00E94930861E047
:100B5000809102020E946B0981E090E09093610312
:100B60008093600327960FB6F894DEBF0FBECDBF0B
:100B7000DF91CF91089580915E0390915F03892B5F
:100B800061F461E0809102020E94A40981E090E09A
:100B900090935F0380935E03089560E0809102026A
:100BA0000E94A40910925F0310925E03089563ED02
:100BB00073E08BE893E00E94291389E693E00C949C
:100BC000460285379105A1F58091600390916103FC
:100BD0008130910541F480E00E94930383ED93E01E
:100BE0000E94B90E38C082309105D1F480916F0017
:100BF000806280936F000E9430041092620383E051
:100C000090E0909361038093600389E394E00E94F5
:100C1000F00B68EE73E080E090E00E9493083CC027
:100C20009C012350310922303105B0F5019630C0C6
:100C30008436910509F040C0809160039091610372
:100C40009C01245031092230310510F4019720C055
:100C50008330910541F480916F008F7D80936F0008
:100C600082E090E015C00297B9F440E855E260E0F8
:100C700070E083ED93E00E943E0E0E945503809148
:100C80006F00806280936F001092730381E090E0A8
:100C9000909361038093600363EA72E089E394E0D8
:100CA0000E943D0A60916003709161034AE050E048
:100CB00089E394E00C94290B0895CF93DF93CDB78B
:100CC000DEB727970FB6F894DEBF0FBECDBF809179
:100CD000600390916103019709F05CC08BE893E099
:100CE0000E945313882309F44BC08BE893E00E94C1
:100CF0005613BC018BE893E00E946D10811107C070
:100D00006AE671E089E394E00E945A0A39C0809152
:100D10008E03825E8F8380918F038E8380919003F8
:100D20008D8380918B038B8380918C038A83809148
:100D30008D038983CE0101960E945D136093740335
:100D4000709375038093760390937703F894809162
:100D5000860390918703A0918803B09189038093C3
:100D60006F0390937003A0937103B093720380910B
:100D700084009091850090936E0380936D03789426
:100D800080917303882321F00E940C048111F6C026
:100D9000109273038091600390916103029741F474
:100DA00064E670E080E090E00E9493081092730384
:100DB00080916003909161030397039708F01BC132
:100DC00080917303882331F16CEA72E089E394E047
:100DD0000E943D0A409180035091810360918203FB
:100DE000709183032AE030E089E394E00E94410B94
:100DF0006DED72E089E394E00E943D0A60917E030C
:100E000070917F034AE050E089E394E00E94720B06
:100E10001092730389E693E00E94C90281118FC08A
:100E200023E633E045E653E067E673E089E693E0C6
:100E30000E944702F8948091860390918703A091C5
:100E40008803B091890380937A0390937B03A093E6
:100E50007C03B0937D0380918400909185009093F2
:100E6000790380937803789480916203882309F44E
:100E700081C082E38983E0913904F0913A040280D1
:100E8000F381E02D41E050E0BE016F5F7F4F89E3C9
:100E900094E01995E0913904F0913A040280F381CD
:100EA000E02D44E050E06AE773E089E394E01995AF
:100EB000E0913904F0913A040280F381E02D42E0A0
:100EC00050E068E773E089E394E01995E091390414
:100ED000F0913A040280F381E02D42E050E067E6B1
:100EE00073E089E394E01995E0913904F0913A04B4
:100EF0000280F381E02D42E050E065E673E089E393
:100F000094E01995E0913904F0913A040280F3815C
:100F1000E02D42E050E063E673E089E394E0199548
:100F2000E0913904F0913A040280F381E02D42E02F
:100F300050E069ED72E089E394E019955CC06FEAD6
:100F400072E089E394E00E946C0A64EC72E089E349
:100F500094E00E946C0A0E9430041092620389E3BC
:100F600094E00E94F00B68EE73E080E090E00E9455
:100F7000930841C081E0809362033DC06CED72E054
:100F800089E394E00E943D0A4091800350918103DF
:100F900060918203709183032AE030E089E394E05A
:100FA0000E94410B6DED72E089E394E00E943D0ADE
:100FB00060917E0370917F034AE050E089E394E002
:100FC0000E946C0B6DED72E089E394E00E943D0A93
:100FD000409174035091750360917603709177038B
:100FE0004F5F5F4F6F4F7F4F2AE030E089E394E01F
:100FF0000E94880BCDCE27960FB6F894DEBF0FBEA9
:10100000CDBFDF91CF91089589E394E00E94A70BB3
:10101000181619062CF489E394E00E94D00B02C044
:1010200080E090E00E94E1050E945D0680915C03F3
:1010300090915D03019690935D0380935C030B9701
:1010400030F00E94BB0510925D0310925C0308957E
:101050001F920F920FB60F9211242F933F938F93ED
:101060009F93AF93BF938091CB039091CC03A091BA
:10107000CD03B091CE033091CA032FE4230F2D3757
:1010800020F40196A11DB11D05C022ED230F02968B
:10109000A11DB11D2093CA038093CB039093CC0371
:1010A000A093CD03B093CE038091CF039091D00352
:1010B000A091D103B091D2030196A11DB11D8093DF
:1010C000CF039093D003A093D103B093D203BF91E9
:1010D000AF919F918F913F912F910F900FBE0F90E5
:1010E0001F9018959FB7F8944091CF035091D0036B
:1010F0006091D1037091D20386B5A89B06C08F3F43
:1011000021F04F5F5F4F6F4F7F4F9FBF2227342FDC
:10111000452F562F280F311D411D511DA6E0B0E06F
:101120000E9458180895CF92DF92EF92FF92CF93CA
:10113000DF936B017C010E947208EB01C114D104A2
:10114000E104F10479F00E9472086C1B7D0B683E8B
:101150007340A0F381E0C81AD108E108F108C85132
:10116000DC4FECCFDF91CF91FF90EF90DF90CF90ED
:101170000895789484B5826084BD84B5816084BD0F
:1011800085B5826085BD85B5816085BDEEE6F0E000
:10119000808181608083E1E8F0E01082808182605C
:1011A0008083808181608083E0E8F0E080818160DD
:1011B0008083E1EBF0E0808184608083E0EBF0E00D
:1011C000808181608083E1E9F0E0808182608083BA
:1011D000808181608083E0E9F0E0808181608083AC
:1011E000E1EAF0E080818260808380818160808399
:1011F000E0EAF0E0808181608083E1E2F1E08081DB
:1012000082608083808181608083E0E2F1E0808180
:1012100081608083EAE7F0E0808184608083808160
:101220008260808380818160808380818068808308
:101230001092C100089590E0FC013197E131F10571
:1012400008F048C0EE58FF4F0C944318809180007E
:101250008F7703C0809180008F7D809380000895F8
:1012600084B58F7702C084B58F7D84BD0895809149
:10127000B0008F7703C08091B0008F7D8093B00065
:101280000895809190008F7707C0809190008F7DA6
:1012900003C080919000877F809390000895809193
:1012A000A0008F7707C08091A0008F7D03C0809140
:1012B000A000877F8093A0000895809120018F7700
:1012C00007C0809120018F7D03C080912001877F1E
:1012D000809320010895CF93DF9390E0FC01E55EB9
:1012E000FC4F2491FC01EF59FC4F8491882349F174
:1012F00090E0880F991FFC01EF53FC4FA591B4912A
:1013000089559C4FFC01C591D4919FB7611108C0CC
:10131000F8948C91209582238C93888182230AC033
:10132000623051F4F8948C91322F309583238C9352
:101330008881822B888304C0F8948C91822B8C93B3
:101340009FBFDF91CF9108950F931F93CF93DF93AA
:101350001F92CDB7DEB7282F30E0F901EB52FD4FD9
:101360008491F901E55EFC4F1491F901EF59FC4FAE
:1013700004910023C9F0882321F069830E941B098E
:101380006981E02FF0E0EE0FFF1FE955FC4FA591BA
:10139000B4919FB7F8948C91611103C0109581238B
:1013A00001C0812B8C939FBF0F90DF91CF911F9134
:1013B0000F910895CF92DF92EF92FF920F931F93B8
:1013C000CF93DF936C017A01EB01E60EF71E00E08C
:1013D00010E0CE15DF0561F06991D601ED91FC9129
:1013E0000190F081E02DC6011995080F191FF1CF6A
:1013F000C801DF91CF911F910F91FF90EF90DF9087
:10140000CF9008956115710581F0DB010D900020EA
:10141000E9F7AD0141505109461B570BDC01ED9135
:10142000FC910280F381E02D199480E090E0089512
:10143000EF92FF920F931F93CF93DF938C01FB01E9
:10144000C0E0D0E064917F018FEFE81AF80A6623CC
:1014500061F0D801ED91FC910190F081E02DC8017F
:101460001995C80FD91FF701EDCFCE01DF91CF91AC
:101470001F910F91FF90EF9008950C94020ADC01E8
:10148000ED91FC910190F081E02D19940F931F9341
:10149000CF93DF93EC016DE00E943F0A8C016AE07C
:1014A000CE010E943F0A800F911FDF91CF911F91C3
:1014B0000F9108950F931F93CF93DF93EC010E9438
:1014C000180A8C01CE010E94460A800F911FDF91FD
:1014D000CF911F910F9108950F931F93CF93DF9397
:1014E000EC010E94020A8C01CE010E94460A800F84
:1014F000911FDF91CF911F910F9108958F929F922D
:10150000AF92BF92CF92DF92EF92FF920F931F9311
:10151000CF93DF93CDB7DEB7A1970FB6F894DEBFB8
:101520000FBECDBF7C01C42EE52FCB01D22E19A258
:1015300021E02D1510F02AE0D22E8E010F5D1F4FF5
:101540008D2C912CA12CB12C6C2D7E2FA5019401FA
:101550000E9421188C2DD29E80191124015011094E
:101560008A3014F4805D01C0895CF8018083211504
:1015700031054105510521F0C22EE32FCA01E4CF08
:10158000B801C7010E94020AA1960FB6F894DEBF07
:101590000FBECDBFDF91CF911F910F91FF90EF90C4
:1015A000DF90CF90BF90AF909F908F900895CF9293
:1015B000DF92EF92FF920F931F93CF93DF93EC0193
:1015C0006A017B012115310579F4E881F9810190E7
:1015D000F081E02D642FDF91CF911F910F91FF904B
:1015E000EF90DF90CF9019942A303105E9F477FF1E
:1015F0001AC06DE20E943F0A8C0144275527BA01A8
:101600004C195D096E097F092AE0CE010E947E0A0D
:10161000800F911FDF91CF911F910F91FF90EF905D
:10162000DF90CF9008952AE0B701A601CE01DF91A7
:10163000CF911F910F91FF90EF90DF90CF900C947E
:101640007E0A9A01AB01662757FD6095762F0C94B0
:10165000D70A0F931F93CF93DF93EC019A01AB014D
:10166000662757FD6095762F0E94D70A8C01CE0120
:101670000E94460A800F911FDF91CF911F910F9119
:1016800008952115310541F4DC01ED91FC910190A3
:10169000F081E02D642F19940C947E0A9A01462F54
:1016A00050E060E070E00C94410B0F931F93CF93D8
:1016B000DF93EC019A01462F50E060E070E00E9459
:1016C000410B8C01CE010E94460A800F911FDF91D1
:1016D000CF911F910F9108959A01AB0160E070E0E6
:1016E0000C94410B0F931F93CF93DF93EC019A015E
:1016F000AB0160E070E00E94410B8C01CE010E94C2
:10170000460A800F911FDF91CF911F910F9108958D
:101710000F931F93CF93DF93EC010E94410B8C0139
:10172000CE010E94460A800F911FDF91CF911F9139
:101730000F9108950E94B9080E944004C1E2DDE0C3
:101740000E9404082097E1F30E94210DF9CFFC01CB
:1017500024853585F901E05CFF4F808191813296C7
:1017600020813181821B930B8F7399270895FC018F
:1017700084859585FC01E05CFF4F40815181329664
:10178000208131814217530741F00190F081E02D13
:10179000E80FF91F808190E008958FEF9FEF089583
:1017A000FC0184859585FC01E05CFF4F40815181FF
:1017B0003296208131814217530779F0A081B1819F
:1017C000A80FB91F8C91208131812F5F3F4F2F735C
:1017D00033273183208390E008958FEF9FEF0895A2
:1017E000FC0181A1882329F0A489B5898C9186FF09
:1017F000FBCF11A20895CF93DF93FC012685378597
:10180000D901A05CBF4F8D919C91119701968F7368
:101810009927E901CE5BDF4F4881598184179507ED
:10182000D9F30D90BC91A02DA20FB31F6C93A68588
:10183000B785A05CBF4F11969C938E93A689B789FC
:101840002C9181E090E0078C02C0880F991F0A94C8
:10185000E2F7282B2C9381E081A30488F589E02D01
:1018600080818064808381E090E0DF91CF91089552
:10187000FB01E05CFF4F208131812F5F3F4F2F73D1
:101880003327DB01AE5BBF4F4D915C9124173507C9
:1018900039F0A081B181A60FB71F8C9331832083CB
:1018A000089508951F920F920FB60F9211240BB650
:1018B0000F922F933F934F935F936F937F938F93E9
:1018C0009F93AF93BF93EF93FF938091C00082FDEE
:1018D00007C08091C60067E376E00E94380C02C022
:1018E0008091C600FF91EF91BF91AF919F918F9131
:1018F0007F916F915F914F913F912F910F900BBE10
:101900000F900FBE0F901F90189508951F920F9281
:101910000FB60F9211240BB60F922F933F934F9354
:101920005F936F937F938F939F93AF93BF93EF9347
:10193000FF938091C80082FD07C08091CE006FEABE
:1019400075E00E94380C02C08091CE00FF91EF91AB
:10195000BF91AF919F918F917F916F915F914F91C7
:101960003F912F910F900BBE0F900FBE0F901F90C5
:10197000189508951F920F920FB60F9211240BB66F
:101980000F922F933F934F935F936F937F938F9318
:101990009F93AF93BF93EF93FF938091D00082FD0D
:1019A00007C08091D60067E275E00E94380C02C043
:1019B0008091D600FF91EF91BF91AF919F918F9150
:1019C0007F916F915F914F913F912F910F900BBE3F
:1019D0000F900FBE0F901F90189508951F920F92B1
:1019E0000FB60F9211240BB60F922F933F934F9384
:1019F0005F936F937F938F939F93AF93BF93EF9377
:101A0000FF938091300182FD07C0809136016FE91C
:101A100074E00E94380C02C080913601FF91EF9172
:101A2000BF91AF919F918F917F916F915F914F91F6
:101A30003F912F910F900BBE0F900FBE0F901F90F4
:101A4000189589E394E00E94A70B892B11F00E945E
:101A5000510C87E194E00E94A70B892B11F00E94A2
:101A6000850C85EF93E00E94A70B892B11F00E9453
:101A7000B90C83ED93E00E94A70B892B11F00C9415
:101A8000ED0C08951F920F920FB60F9211240BB612
:101A90000F922F933F938F939F93EF93FF932091F8
:101AA000330630913406809135069091360628171A
:101AB000390731F48091C1008F7D8093C10014C03B
:101AC000E0913506F0913606ED50FA4F2081809175
:101AD00035069091360601968F73992790933606B6
:101AE000809335062093C600FF91EF919F918F91CF
:101AF0003F912F910F900BBE0F900FBE0F901F9034
:101B000018951F920F920FB60F9211240BB60F92D9
:101B10002F933F938F939F93EF93FF932091AB0568
:101B20003091AC058091AD059091AE05281739072D
:101B300031F48091C9008F7D8093C90014C0E09179
:101B4000AD05F091AE05E559FA4F20818091AD05C4
:101B50009091AE0501968F7399279093AE0580936F
:101B6000AD052093CE00FF91EF919F918F913F9112
:101B70002F910F900BBE0F900FBE0F901F901895D6
:101B80001F920F920FB60F9211240BB60F922F9344
:101B90003F938F939F93EF93FF9320912305309171
:101BA000240580912505909126052817390731F4E1
:101BB0008091D1008F7D8093D10014C0E0912505E4
:101BC000F0912605ED51FB4F2081809125059091E4
:101BD000260501968F7399279093260580932505F6
:101BE0002093D600FF91EF919F918F913F912F917C
:101BF0000F900BBE0F900FBE0F901F9018951F9265
:101C00000F920FB60F9211240BB60F922F933F93A2
:101C10008F939F93EF93FF9320919B0430919C04AB
:101C200080919D0490919E042817390731F480918A
:101C300031018F7D8093310114C0E0919D04F091BA
:101C40009E04E55AFB4F208180919D0490919E0453
:101C500001968F73992790939E0480939D042093FF
:101C60003601FF91EF919F918F913F912F910F90AE
:101C70000BBE0F900FBE0F901F901895CF92DF9262
:101C8000EF92FF92CF93DF93EC016A017B01EC8925
:101C9000FD8981E090E008A002C0880F991F0A9496
:101CA000E2F7808360EA75E286E290E0A7019601A0
:101CB0000E94211821503109410951095695479533
:101CC00037952795211580E1380798F0EC89FD8933
:101CD000108260ED72E183E190E0A70196010E941D
:101CE00021182150310941095109569547953795D9
:101CF0002795E889F9893083EA89FB89208319A22D
:101D0000EE89FF89408181E090E09C010C8C02C04B
:101D1000220F331F0A94E2F7422B4083EE89FF899A
:101D200040819C010D8C02C0220F331F0A94E2F700
:101D3000422B4083EE89FF8940819C010E8C02C0BA
:101D4000220F331F0A94E2F7422B4083EE89FF896A
:101D500020810F8C02C0880F991F0A94E2F78095AA
:101D600082238083DF91CF91FF90EF90DF90CF901F
:101D70000895CF93DF93FC0186859785DC01A05CF5
:101D8000BF4FEC01CE5BDF4F4D915C9111972881E5
:101D9000398142175307C1F7A689B7894C9181E071
:101DA00090E09C01048C02C0220F331F0A94E2F7DA
:101DB000209524232C93A689B7894C919C01058CEE
:101DC00002C0220F331F0A94E2F7209524232C939C
:101DD000A689B7894C919C01068C02C0220F331F43
:101DE0000A94E2F7209524232C93A689B7892C9195
:101DF000078C02C0880F991F0A94E2F7809582230E
:101E00008C9384859585FC01EE5BFF4F20813181A9
:101E1000329731832083DF91CF910895CF93109231
:101E20003C0410923B0488EE93E0A0E0B0E0809385
:101E30003D0490933E04A0933F04B093400423EEEE
:101E400032E030933A042093390447E356E050934C
:101E500046044093450443EF55E0509348044093B3
:101E6000470445EC50E050934A044093490444EC45
:101E700050E050934C0440934B0440EC50E050939E
:101E80004E0440934D0441EC50E050935004409375
:101E90004F0442EC50E0509352044093510446ECFE
:101EA00050E05093540440935304C4E0C09355044D
:101EB000F3E0F0935604E7E0E093570475E0709385
:101EC000580461E06093590410921A0410921904A6
:101ED00080931B0490931C04A0931D04B0931E04D4
:101EE00030931804209317044FEA55E050932404CC
:101EF000409323044BE655E0509326044093250479
:101F00004DEC50E050932804409327044CEC50E0F3
:101F100050932A044093290448EC50E050932C0439
:101F200040932B0449EC50E050932E0440932D0431
:101F30004AEC50E05093300440932F044EEC50E0B4
:101F40005093320440933104C0933304F09334042B
:101F5000E093350470933604609337041092F803CD
:101F60001092F7038093F9039093FA03A093FB0375
:101F7000B093FC033093F6032093F50347E255E05A
:101F8000509302044093010443EE54E05093040440
:101F90004093030445ED50E050930604409305043C
:101FA00044ED50E0509308044093070440ED50E0A6
:101FB00050930A044093090441ED50E050930C04FF
:101FC00040930B0442ED50E050930E0440930D04F7
:101FD00046ED50E05093100440930F04C093110459
:101FE000F0931204E09313047093140460931504A7
:101FF0001092D6031092D5038093D7039093D80301
:10200000A093D903B093DA033093D4032093D3037E
:102010008FE994E09093E0038093DF038BE594E0F5
:102020009093E2038093E10385E391E09093E403CE
:102030008093E30384E391E09093E6038093E503C8
:1020400080E391E09093E8038093E70381E391E0DC
:102050009093EA038093E90382E391E09093EC0389
:102060008093EB0386E391E09093EE038093ED037E
:10207000C093EF03F093F003E093F1037093F20346
:102080006093F303CF91089561E085E30E94A40972
:1020900061E085E30E946B098CB580618CBD8CB5D5
:1020A00080648CBD61E084E30E946B0961E083E39E
:1020B0000C946B099CB5937F982B9CBD08952CB50F
:1020C000982F93702C7F922B9CBD9DB582FB882707
:1020D00080F99E7F982B9DBD08954F925F926F92DD
:1020E0007F928F929F92AF92BF92CF92DF92EF92A8
:1020F000FF920F931F93CF93DF93EC018B01FB01B2
:1021000001900020E9F7E61BF70B3597DB01AE0FD6
:10211000BF1F8C918A3241F421E0822F90E08E170C
:102120009F0710F42F5FF9CF6FEE72E0C8010E9495
:102130005014892B09F4DDC06CE270E0C8010E94E4
:1021400045148C010F5F1F4FC8010E9418146B01CA
:102150007C0120E030E0A9010E941A1620E030E066
:1021600040E05FE387FD05C0C701B6010E9473141C
:1021700004C0C701B6010E9472140E94DB140E94C1
:102180000E156B017C010E94E0142B013C0120E143
:1021900037E240E050E00E942118288344E6842E74
:1021A000912CA12CB12CA50194010E942118298306
:1021B000C301B201A50194010E9421186A8320E0A5
:1021C00030E040E85FE3C701B6010E94501520E00F
:1021D00030E04AE754E40E941E160E94E0147F8318
:1021E0006E836CE270E0C8010E9445148C010F5FA1
:1021F0001F4FC8010E941814688779878A879B87B8
:102200006CE270E0C8010E944514FC0121812E346B
:1022100011F0233511F428A705C02C3211F080E00D
:1022200058C118A66CE270E001960E9445148C011A
:102230000F5F1F4FC8010E9418146C877D878E871F
:102240009F876CE270E0C8010E944514FC01218167
:10225000273511F0253411F429A703C02C32F9F6E3
:1022600019A66CE270E001960E9445148C010F5F84
:102270001F4FC8010E941C148CA76CE270E0C801BB
:102280000E9445148C010F5F1F4FC8010E941C144F
:102290008DA76CE270E0C8010E9445148C010F5FAD
:1022A0001F4FC8010E9418146CA37DA38EA39FA387
:1022B0006CE270E0C8010E9445148C010F5F1F4F53
:1022C000C8010E9418146C8B7D8B8E8B9F8B6CE2E7
:1022D00070E0C8010E9445146CE270E001960E9413
:1022E000451401960E941814688B798B8A8B9B8BFE
:1022F000EFC066EF72E0C8010E945014892B09F408
:102300008ECF6CE270E0C8010E9445148C010F5F13
:102310001F4FC8010E9418146B017C0120E030E0BF
:10232000A9010E941A1620E030E040E05FE387FD3B
:1023300005C0C701B6010E94731404C0C701B601ED
:102340000E9472140E94DB140E940E156B017C0126
:102350000E94E0142B013C0120E137E240E050E014
:102360000E942118288334E6832E912CA12CB12CB5
:10237000A50194010E9421182983C301B201A5017E
:1023800094010E9421186A8320E030E040E85FE376
:10239000C701B6010E94501520E030E04AE754E43E
:1023A0000E941E160E94E0147F836E836CE270E030
:1023B000C8010E944514FC012181213419F421E057
:1023C0002BA704C0263509F02ACF1BA66CE270E0CB
:1023D00001960E9445148C010F5F1F4FC8010E9497
:1023E0001814688779878A879B876CE270E0C80138
:1023F0000E944514FC0121812E3411F0233511F483
:1024000028A704C02C3209F00ACF18A66CE270E0AD
:1024100001960E9445148C010F5F1F4FC8010E9456
:1024200018146C877D878E879F876CE270E0C801E7
:102430000E944514FC012181273511F0253411F447
:1024400029A704C02C3209F0EACE19A66CE270E08C
:1024500001960E9445148C010F5F1F4FC8010E9416
:102460001814688F798F8A8F9B8F6CE270E0C80197
:102470000E9445148C010F5F1F4FC8010E94181461
:102480006C8F7D8F8E8F9F8F6CE270E0C8010E94F1
:10249000451401960E9418140E94E0144B015C013F
:1024A00020E137E240E050E00E9421182D8324E62D
:1024B000C22ED12CE12CF12CA70196010E942118EB
:1024C0002C83C501B401A70196010E9421186B83DA
:1024D00081E0DF91CF911F910F91FF90EF90DF90FE
:1024E000CF90BF90AF909F908F907F906F905F90B4
:1024F0004F900895CF93DF93EC018AAD882311F0BC
:1025000080E05FC08DAD9EADDC01ED91FC9104805B
:10251000F581E02D1995892B99F38DAD9EADDC01E8
:10252000ED91FC910680F781E02D199520917E06B2
:1025300030917F06843249F490918006F901E90FC9
:10254000F11D10821092800628C08A3031F59091DA
:102550008006F901E90FF11D108220917E0630916D
:102560007F06B6E0293F3B0739F441E856E0509337
:102570007F0640937E0608C029EF36E030937F0641
:1025800020937E0621E836E030937D0620937C067A
:102590001092800691E090937B06E0917E06F09188
:1025A0007F069091800621E0290F20938006E90F95
:1025B000F11D808390918006983718F097E79093EB
:1025C0008006DF91CF910895FC0114AE13AE16AED4
:1025D00015AE10927B0612AE1092800689EF96E03F
:1025E00090937F0680937E0681E896E090937D0627
:1025F00080937C0615A614A615821482138212827B
:102600001182108212A611A610A613A61782168296
:1026100014A215A216A217A210A211A212A213A20E
:10262000148E158E168E178E108E118E128E138E9E
:10263000148A158A168A178A108A118A128A138AAE
:1026400014861586168617861086118612861386BE
:1026500008950F931F93CF93DF93EC018B010E949A
:10266000E4121EAF0DAFDF91CF911F910F9108952E
:10267000FC0183AD94ADAB0160E070E0009711F414
:1026800085AD96AD0E943E0E6AE070E080E090E07D
:102690000C949308FC0183AD94AD009711F485ADC3
:1026A00096AD0C946C0A80917B06089510927B067F
:1026B00080917C0690917D0608956F927F928F9213
:1026C0009F92AF92BF92CF92DF92EF92FF920F93C1
:1026D0001F93CF93DF93FC01C680AC2DB0E020E8C0
:1026E00033E341EE51E00E9458184B015C0122EBAC
:1026F00037E06D01C4E6D0E000E911E0C901825B7A
:1027000097408C159D05DCF4C90183709927892BAE
:1027100099F4C901BE010E940D18892B31F4C90139
:10272000B8010E940D18892B39F480E8880E81E5E4
:10273000981E81E0A81EB11C2F5F3F4FDFCF658040
:10274000712C8EE4C81A88EFD80AC60164E670E0DE
:102750000E940D188C01C60160E971E00E940D18FD
:102760007C01C1E0D0E083E0C822DD24C615D70596
:102770002CF5C230D10589F4C114D10471F40115CE
:10278000110519F4E114F10441F480E8880E8BE39B
:10279000981E86E2A81EB11C0FC0DE01A15BBC4FD3
:1027A000AC91B0E020E831E541E050E00E945818DB
:1027B000860E971EA81EB91E2196D8CF4181228170
:1027C00030E0A0E1BEE00E9449186B017C01242F9B
:1027D00030E0ACE3B0E00E944918C60ED71EE81EF8
:1027E000F91E8081C80ED11CE11CF11CA481B0E04F
:1027F000119720E831E541E050E00E946318C60ED1
:10280000D71EE81EF91EC80CD91CEA1CFB1CC70108
:10281000B601DF91CF911F910F91FF90EF90DF9064
:10282000CF90BF90AF909F908F907F906F900895C2
:10283000662777270C948116FC0188279927E8944E
:1028400021912032E9F3293010F02E30C8F32B32D9
:1028500041F02D3239F4689404C00E946A14820F4A
:10286000911D219120532A30C0F31EF4909581953B
:102870009F4F0895F8940C9483189111B3C380323C
:1028800019F089508550D0F70895FC018191861781
:1028900021F08823D9F7992708953197CF0108951A
:1028A000FB0151915523A9F0BF01DC014D91451762
:1028B0004111E1F759F4CD010190002049F04D910B
:1028C00040154111C9F3FB014111EFCF81E090E0C8
:1028D000019708957AE0979F902D879F802D910D05
:1028E000112408955058BB27AA270ED069C15AD188
:1028F00030F05FD120F031F49F3F11F41EF44FC14E
:102900000EF4E095E7FB37C1E92F6BD180F3BA17DE
:10291000620773078407950718F071F49EF583C169
:102920000EF4E0950B2EBA2FA02D0B01B9019001EA
:102930000C01CA01A0011124FF27591B99F0593F2E
:1029400050F4503E68F11A16F040A22F232F342F76
:102950004427585FF3CF469537952795A795F040C4
:102960005395C9F77EF41F16BA0B620B730B840BD9
:10297000BAF09150A1F0FF0FBB1F661F771F881F91
:10298000C2F70EC0BA0F621F731F841F48F48795E9
:1029900077956795B795F7959E3F08F0B3CF9395D8
:1029A000880F08F09927EE0F979587950895BFD067
:1029B00008F481E0089504D06894B11135C10895F8
:1029C00018D188F09F5790F0B92F9927B751A0F0F0
:1029D000D1F0660F771F881F991F1AF0BA95C9F7B3
:1029E00012C0B13081F01FD1B1E008951CC1672F32
:1029F000782F8827B85F39F0B93FCCF38695779563
:102A00006795B395D9F73EF490958095709561954B
:102A10007F4F8F4F9F4F0895E89409C097FB3EF476
:102A200090958095709561957F4F8F4F9F4F99231B
:102A3000A9F0F92F96E9BB279395F6958795779599
:102A40006795B795F111F8CFFAF4BB0F11F460FF59
:102A50001BC06F5F7F4F8F4F9F4F16C0882311F0B1
:102A600096E911C0772321F09EE8872F762F05C0C5
:102A7000662371F096E8862F70E060E02AF09A9560
:102A8000660F771F881FDAF7880F9695879597F955
:102A9000089588D018F011F08CD038F480C0C4C0EC
:102AA000E92F9FD0B0F35523C9F3E7FB62177307F3
:102AB00084079507A8F199F3E92FFF2788232AF0C7
:102AC0003197660F771F881FDAF7952F5527442314
:102AD00032F091505040220F331F441FD2F7BB27D2
:102AE000E91BF50B621B730B840BB109C1F222F4D5
:102AF000620F731F841FB11D31972AF0660F771F75
:102B0000881FBB1FEFCF915050405AF041F08823EF
:102B100032F0660F771F881F91505040C1F7939590
:102B200030C08695779567959F5FD9F7F8CF990F55
:102B30000008550FAA0BE0E8FEEF16161706E80787
:102B4000F907C0F012161306E407F50798F0621BA8
:102B5000730B840B950B39F40A2661F0232B242B7D
:102B6000252B21F408950A2609F4A140A6958FEF9C
:102B7000811D811D089597F99F6780E870E060E0EE
:102B800008959F3F31F0915020F487957795679590
:102B9000B795880F911D9695879597F908959FEFA2
:102BA00080EC089500240A941616170618060906E4
:102BB000089500240A9412161306140605060895B3
:102BC000092E0394000C11F4882352F0BB0F40F43B
:102BD000BF2B11F460FF04C06F5F7F4F8F4F9F4F7B
:102BE000089557FD9058440F551F59F05F3F71F0FD
:102BF0004795880F97FB991F61F09F3F79F0879564
:102C00000895121613061406551FF2CF4695F1DFEC
:102C100008C0161617061806991FF1CF869571057C
:102C2000610508940895E894BB2766277727CB01B0
:102C300097F908957CDF08F48FEF08950BD0C0CF8B
:102C4000B1DF28F0B6DF18F0952309F094CFA7CFB5
:102C50001124EACFC6DFA0F3959FD1F3950F50E082
:102C6000551F629FF001729FBB27F00DB11D639F3E
:102C7000AA27F00DB11DAA1F649F6627B00DA11DE4
:102C8000661F829F2227B00DA11D621F739FB00D8A
:102C9000A11D621F839FA00D611D221F749F3327FA
:102CA000A00D611D231F849F600D211D822F762F93
:102CB0006A2F11249F5750408AF0E1F088234AF090
:102CC000EE0FFF1FBB1F661F771F881F91505040DC
:102CD000A9F79E3F510570F04ECFA6CF5F3FECF3B2
:102CE000983EDCF3869577956795B795F795E795C8
:102CF0009F5FC1F7FE2B880F911D9695879597F9D9
:102D000008958F929F92AF92BF92CF92DF92EF92EF
:102D1000FF920F931F93CF93DF938B016115710582
:102D200021F0DB018C9311969C93EC015E01BFEFC7
:102D3000AB1ABB0A7501C8808C2D90E00E943D142F
:102D4000892B11F0E501F2CFEDE2CE1208C07E0131
:102D5000F2E0EF0EF11CC980DD24D39409C02BE210
:102D6000C21205C07E0142E0E40EF11CC980D12CE4
:102D7000E701219743E050E063EE73E0CE010E944B
:102D8000F517892BC1F4239645E050E06EED73E012
:102D9000CE010E94F517892B09F42596011511051E
:102DA00019F0D801CD93DC93D11006C160E070E03A
:102DB00080E89FE70AC143E050E06BED73E0CE018D
:102DC0000E94F517892B59F40115110509F4F9C072
:102DD000B2E0EB0EF11CF801F182E082F2C0F701E3
:102DE00060E070E0CB01C0E0D0E07F01A0EDAA2E52
:102DF000AC0C29E02A1530F14D2D4260B42E2D2D5A
:102E00002870D2FE04C0211125C0219623C02111B3
:102E10002197A5E0B0E09B01AC010E945818660F15
:102E2000771F881F991F6A0D711D811D911D6839BB
:102E3000A9E97A078A07A9E19A0760F0BD2DB66073
:102E4000BB2E08C02EEFA2120AC0D3FC50C04D2DDD
:102E50004860B42E3196D701CC90DB2CC6CF2C2DF8
:102E60002F7D253409F043C0A081AD3241F4BD2D42
:102E7000B061DB2E7F0122E0E20EF11C0CC07F016D
:102E8000AB3231F04FEFE41AF40A21E030E006C033
:102E9000A2E0EA0EF11CA18122E030E0A053AA30AA
:102EA00018F0E21AF30A23C0F70120E030E02038DE
:102EB000BCE03B075CF4A901440F551F440F551FAC
:102EC000240F351F220F331F2A0F311DAF014F5F13
:102ED0005F4F7A01A081A053AA3010F4FA01E7CF26
:102EE000D4FE03C0319521953109C20FD31FD1FE05
:102EF00009C00115110531F0E1E0EE1AF108D80121
:102F0000ED92FC920E940C152D2D2370233019F0A8
:102F10004B015C0106C04B015C01B7FAB094B7F8F5
:102F2000B09420E030E0A901C501B4010E94D7149B
:102F3000882309F43EC0D7FF06C0D195C195D109B9
:102F40000AEF13E002C002E114E06801B8E1CB1A15
:102F5000D10890E2E92EF12CCE15DF0574F0F801CE
:102F60002591359145915491C501B4010E941E16D9
:102F70004B015C01CE19DF09EFCF04501109F59424
:102F8000E7940C151D0541F78A2D880F8B2D881F9E
:102F90008F3F49F020E030E0A901C501B4010E9453
:102FA000D714811106C082E290E09093720780935B
:102FB0007107C501B40109C060E070E080E89FEFCF
:102FC00004C060E070E080EC9FE7DF91CF911F913B
:102FD0000F91FF90EF90DF90CF90BF90AF909F90B8
:102FE0008F900895992788270895FB01DC014150AF
:102FF000504088F08D9181341CF08B350CF4805E4C
:10300000659161341CF06B350CF4605E861B6111B8
:1030100071F3990B0895881BFCCF97FB072E16F4CC
:10302000009407D077FD09D00E946F1807FC05D0E7
:103030003EF4909581959F4F0895709561957F4FCF
:103040000895A1E21A2EAA1BBB1BFD010DC0AA1FE9
:10305000BB1FEE1FFF1FA217B307E407F50720F001
:10306000A21BB30BE40BF50B661F771F881F991F7C
:103070001A9469F760957095809590959B01AC01C5
:10308000BD01CF010895EE0FFF1F0590F491E02DD3
:103090001994A29FB001B39FC001A39F700D811D21
:1030A0001124911DB29F700D811D1124911D089551
:1030B0000E944918A59F900DB49F900DA49F800D6C
:1030C000911D11240895B7FF0C9458180E945818A8
:1030D000821B930B08950790F691E02D1994AA1B7B
:1030E000BB1B51E107C0AA1FBB1FA617B70710F0F3
:1030F000A61BB70B881F991F5A95A9F78095909525
:0A310000BC01CD010895F894FFCF43
:10310A000A000D00302C4144584C3336323A2053D1
:10311A0074617274204D6561737572696E672E2EC3
:10312A002E0024504D544B3331342C302C312C305A
:10313A002C312C302C302C302C302C302C302C30A4
:10314A002C302C302C302C302C302C302C302C3095
:10315A002A32380024504D544B3232302C31303020
:10316A00302A314600302C2D20536B697070696EFD
:10317A0067205050533A2028002F002900302C2D68
:10318A0020646F6E652100302C50617273696E671E
:10319A00204E4D45412073656E74656E6365732ECE
:1031AA002E2E00302C73746174653D00332C003070
:1031BA002C446174612052656164792054696D659B
:1031CA006F757400302C52657374617274696E671E
:1031DA00204144584C333632000D0A00312C00008D
:1031EA00000000FB0BDA09A70BD00BB70BF00B247E
:1031FA00475047474100244750524D430024504D01
:10320A00544B3138352C302A32320024504D544B2D
:10321A003030312C3138352C332A33430024504D89
:10322A00544B3138332A33380024504D544B4C4FC9
:10323A00470024504D544B3136312C302A32380055
:10324A0024504D544B3031302C3030322A32440025
:0C325A001F1C1F1E1F1E1F1F1E1F1E1FFB
:00000001FF
