:100000000C940C020C943D020C943D020C943D02A5
:100010000C943D020C943D020C943D020C943D0264
:100020000C943D020C943D020C943D020C943D0254
:100030000C943D020C943D020C943D020C943D0244
:100040000C9412040C943D020C943D020C943D025D
:100050000C94ED030C94B1030C943D020C946209D2
:100060000C943D020C94730E0C94630F0C943D029F
:100070000C943D020C943D020C943D020C943D0204
:100080000C943D020C943D020C943D020C943D02F4
:100090000C94A70E0C94A20F0C943D020C943D02FC
:1000A0000C943D020C943D020C943D020C943D02D4
:1000B0000C943D020C943D020C943D020C943D02C4
:1000C0000C943D020C943D020C943D020C94DB0E0A
:1000D0000C94E10F0C943D020C940F0F0C94201023
:1000E0000C943D026A0A6D0A600A640AA40A710A45
:1000F000750A7B0A7F0A830A890A8D0A910AA40A73
:10010000970A9B0A9F0A0C94710A0C94830A0C9418
:10011000600A0C94C80D0C94910A0C94890A0C94F2
:10012000750A0C946A0A0C947F0A0C947B0A0C944E
:10013000A40A0C94F10D0C948D0A0C94640A0C948E
:100140009F0A0C949B0A0C942F110C941C0E0C9477
:10015000110E0C94970A0C9467060C946D0A0C947B
:10016000140B0C94420F0C94D80D302C2D2D2047DD
:1001700050532E7061727365284750532E6C617313
:10018000744E4D4541282929206661696C65642EAD
:100190002E2E002F3230002F002C20002E003A008F
:1001A0003A00302C2D204E4D454120706172736510
:1001B000643A2000302C2D204750532E706172730A
:1001C00065284750532E6C6173744E4D4541282964
:1001D00029206661696C65642E2E2E00302C205714
:1001E000616974696E6720666F7220505053207386
:1001F00069676E616C732E2E2E00302C2D20436F9C
:100200006E66696775726174696F6E20616C6C20CF
:10021000646F6E652E00302C2D2D20537461727426
:10022000696E672054696D65723120776974682042
:100230004F56462F4341505455524520696E7465C0
:1002400072727570747300646F6E652E00302C2DA1
:100250002D2053656E64696E6720696E69746961EB
:100260006C69736520636F6D6D616E6420746F20BF
:100270004750532E2E2E00302C2D20436F6E666972
:10028000677572696E6720475053206D6F64756C97
:10029000652E202E2E0A00302C2D20436F6E6669AD
:1002A000677572696E672044415120737973746574
:1002B0006D2E2E2E00302C576972656C657373207D
:1002C0004441512053797374656D2076312E302E60
:1002D0002E2E000000090A02080B0C0D070603046D
:1002E000010000000000000000000000000000000D
:1002F00000000000000000000000000000000011ED
:10030000100F0000000000000000000000000000CE
:10031000000000000000000000010210202008087A
:100320001020401020408002010201080402010157
:100330000204081020408080402010080402018040
:100340000402018040201008040201080402010197
:10035000020408102040800102040810204080059B
:10036000050505070508080808020202020A0A082E
:100370000804040404010101010101010103030354
:100380000303030303040707070C0C0C0C0C0C0CF1
:100390000C0202020206060606060606060B0B0BF8
:1003A0000B0B0B0B0B00002200250028002B002E4E
:1003B000003100340002010000050108010B0100BA
:1003C000002100240027002A002D00300033000106
:1003D000010000040107010A014E414E494E4954F3
:1003E00059494E46CDCCCC3D0AD7233C17B7D1381E
:1003F00077CC2B329595E6241FB14F0A000020419F
:100400000000C84200401C4620BCBE4CCA1B0E5A0D
:10041000AEC59D7467062F1111241FBECFEFD1E228
:10042000DEBFCDBF00E00CBF15E0A0E0B2E0E8EE1B
:10043000FBE300E00BBF02C007900D92AE3EB10798
:10044000D9F72AE0AEEEB5E001C01D92A138B2079F
:10045000E1F714E0C8E1D4E000E006C0229701090A
:10046000FE010BBF0E94DA1DC431D10780E00807EE
:10047000A9F70E94BB0D0C945B160C9400008EBD76
:100480000DB407FEFDCF8EB508950895AF92BF92CB
:10049000CF92DF92EF92FF920F931F93CF93DF9350
:1004A0008B017A01E90180E0C82E82E0D82E60E05D
:1004B000D6018C910E94DE0A8BE00E943F028EE002
:1004C0000E943F0280E00E943F02A82EB12CF8015A
:1004D000B182A08280E00E943F02E82FF0E0FE2F70
:1004E000EE27EA0DFB1DD801ED93FC9380E00E94FE
:1004F0003F02082F10E0F7011183008380E00E9483
:100500003F02682F70E0762F6627600F711FD701BA
:100510006D937C9380E00E943F02082F10E01983C6
:10052000088380E00E943F02482F50E0542F442768
:10053000400F511F5983488361E0F6018081DF91AC
:10054000CF911F910F91FF90EF90DF90CF90BF90D0
:10055000AF900C94DE0A1F93CF93DF93162FC0E069
:10056000D2E060E088810E94DE0A8BE00E943F02B8
:10057000812F0E943F0280E00E943F02182F61E01D
:1005800088810E94DE0A812FDF91CF911F9108950B
:100590000F931F93CF93DF938C01C7E3D2E86BE0F7
:1005A000C8010E94AB0280FD05C02197209721F071
:1005B0000000F5CF80E001C081E0DF91CF911F9175
:1005C0000F910895EF92FF921F93CF93DF931F92A5
:1005D000CDB7DEB7162FF0E0EF2EF2E0FF2E60E091
:1005E000F701808149830E94DE0A8AE00E943F026F
:1005F000812F0E943F024981842F0E943F0261E0C7
:10060000F70180810F90DF91CF911F91FF90EF90C4
:100610000C94DE0A1F93CF93DF93EC016DE20E94EE
:10062000AB02182F69E073E087E497E00E94770B34
:100630004AE050E0612F87E497E00E94700C412F60
:1006400042606DE2CE010E94E2026AE070E080E06A
:1006500090E00E94CD096DE2CE010E94AB02C82F4E
:1006600066E373E087E497E00E94770B4AE050E08E
:100670006C2F87E497E00E94770C87E497E0DF9186
:10068000CF911F910C94800BCF93DF93EC01862FB9
:10069000609300027093010261E00E94A50A0E942B
:1006A000651280E00E947B1282E00E94801268EE58
:1006B00073E080E090E00E94CD0965E374E087E498
:1006C00097E00E94A60B87E497E00E94110E68EE67
:1006D00073E080E090E00E94CD0942E56FE1CE0139
:1006E0000E94E20264E474E087E497E00E94A60BB3
:1006F00087E497E00E94110E68EE73E080E090E0DE
:100700000E94CD0945E86CE2CE010E94E20267E555
:1007100074E087E497E00E94A60B87E497E00E94CC
:10072000110E68EE73E080E090E00E94CD0940E297
:100730006DE2CE010E94E20268E374E087E497E094
:10074000DF91CF910C94A60B8FEA87BD8EE687BD13
:10075000EEE6F0E080818260808381E080939806FD
:1007600008951F920F920FB60F9211240BB60F929D
:100770002F933F934F935F936F937F938F939F93A9
:10078000AF93BF93EF93FF9389E996E00E949B1488
:1007900090917806992319F081118093C600FF91FA
:1007A000EF91BF91AF919F918F917F916F915F91E9
:1007B0004F913F912F910F900BBE0F900FBE0F9056
:1007C0001F90189581110C94A40380916E008D7F69
:1007D00080936E001092980608951F920F920FB6A4
:1007E0000F9211248F939F93AF93BF9380919406A0
:1007F00090919506A0919606B09197060196A11D3D
:10080000B11D8093940690939506A0939606B0939D
:100810009706BF91AF919F918F910F900FBE0F9050
:100820001F9018951F920F920FB60F9211248F935D
:100830009F93AF93BF938091860090918700909390
:10084000930680939206B09B06C080919206909189
:10085000930697FF09C08091940690919506A09108
:100860009606B09197060BC08091940690919506DC
:10087000A0919606B09197060196A11DB11D809397
:100880008E0690938F06A0939006B0939106809168
:1008900092069091930690938D0680938C0681E04A
:1008A00080938B06BF91AF919F918F910F900FBE58
:1008B0000F901F90189565E370E081E796E00E9425
:1008C000440381E796E00E940A036BE674E087E444
:1008D00097E00C94A60B0F931F9360918E06709176
:1008E0008F06809190069091910600917406109168
:1008F00075062091760630917706601B710B820B8E
:10090000930B0E94D61720E030E04AEB52E40E949D
:100910003917881F8827881F1F910F910895CF933B
:10092000DF93CDB7DEB727970FB6F894DEBF0FBEC3
:10093000CDBF81E090E09093580680935706909346
:100940005A068093590610925B0610925C0610922C
:100950005D0610925E0610925F0690936306809388
:100960006206909365068093640610926606109264
:100970006706109268061092690610926A0668EE81
:1009800073E080E090E00E94CD0940E052EC61E02D
:1009900070E087E497E00E945F1065EB72E087E407
:1009A00097E00E94940B67E972E087E497E00E9469
:1009B000940B60E875E289E996E00E94591567E7B3
:1009C00072E087E497E00E94520B6DE472E087E4E6
:1009D00097E00E94520B0E94A40369E874E089E941
:1009E00096E00E946B156BEB74E089E996E00E943B
:1009F0006B1567E472E087E497E00E94940B66E170
:100A000072E087E497E00E94940B1092800081ECE2
:100A100080938100109282001092850010928400D1
:100A200081E280936F006AEF71E087E497E00E94B3
:100A3000940B6CED71E087E497E00E94940B809139
:100A4000790690917A068330910580F520918B0686
:100A50002130E1F710928B06019690937A068093ED
:100A600079066CEC74E087E497E00E94770B609164
:100A7000790670917A064AE050E087E497E00E9498
:100A80008E0C60EE74E087E497E00E94770B4AE0FA
:100A900050E063E070E087E497E00E945B0C62EE58
:100AA00074E087E497E00E94A60BC9CF64EE74E07F
:100AB00087E497E00E94A60B6EEE74E087E497E06F
:100AC0000E94A60B8091790690917A06059708F00E
:100AD000ADC089E996E00E947415882309F495C099
:100AE00089E996E00E947715BC0189E996E00E94A9
:100AF0008E12811107C064EB71E087E497E00E94D9
:100B0000940B83C080919C06825E8F8380919D06AA
:100B10008E8380919E068D83809199068B83809130
:100B20009A068A8380919B068983CE0101960E9452
:100B30007E1560938706709388068093890690934C
:100B40008A0662EA71E087E497E00E94520B4AE06D
:100B500050E06091990687E497E00E94700C60EA8B
:100B600071E087E497E00E94520B4AE050E0609108
:100B70009A0687E497E00E94700C6EE971E087E4C2
:100B800097E00E94520B4AE050E060919B0687E498
:100B900097E00E94700C6CE971E087E497E00E9496
:100BA000520B60919F067091A0064AE050E087E4E6
:100BB00097E00E948E0C69E971E087E497E00E945B
:100BC000520B4AE050E060919E0687E497E00E9455
:100BD000700C67E971E087E497E00E94520B4AE0ED
:100BE00050E060919D0687E497E00E94700C63E9F5
:100BF00071E087E497E00E94520B4AE050E0609178
:100C00009C0687E497E00E94770C80918B068130E8
:100C100009F058CF10928B068091790690917A0650
:100C2000019690937A06809379064CCF64EE74E037
:100C300087E497E00E94A60B64E670E080E090E015
:100C40000E94CD0989E390E0909356068093550663
:100C50008AE390E0909361068093600660E089E308
:100C60000E94A50A60E0809160060E94A50A61E0EA
:100C7000809102020E94A50A81E090E090935406C0
:100C80008093530627960FB6F894DEBF0FBECDBFF4
:100C9000DF91CF9108958091F0059091F105892B16
:100CA00061F461E0809102020E94DE0A81E090E03E
:100CB0009093F1058093F005089560E08091020221
:100CC0000E94DE0A1092F1051092F005089561EE7F
:100CD00076E089E996E00E944A1581E796E00C9457
:100CE0004502209153063091540621303105B9F464
:100CF0008537910509F076C080E00E94E20381EE1D
:100D000096E00E94DA1080916F008F7D80936F00D3
:100D100082E090E0909354068093530645C02230C1
:100D2000310521F58537910509F041C080916F00AB
:100D3000806280936F000E945B0481E080930402D4
:100D400083E090E0909354068093530664E175E04D
:100D500087E497E00E94A60B87E497E00E94110EBB
:100D600068EE73E080E090E00C94CD09233031050B
:100D700009F041C08537910519F464E175E037C089
:100D800084369105C1F580916F008F7D80936F004F
:100D900082E090E090935406809353066AE674E0F4
:100DA00087E497E00E94A60B6AE075E020C08436D5
:100DB000910509F540E855E260E070E081EE96E0CB
:100DC0000E945F100E94A40380916F008062809354
:100DD0006F0010928B0681E090E090935406809310
:100DE000530603C08436910531F46EE175E087E463
:100DF00097E00C94A60B08951F93CF93DF93CDB784
:100E0000DEB727970FB6F894DEBF0FBECDBF809137
:100E1000530690915406019709F05CC089E996E069
:100E20000E947415882309F44BC089E996E00E945A
:100E30007715BC0189E996E00E948E12811107C0E6
:100E40006AE671E087E497E00E94940B39C08091D4
:100E50009C06825E8F8380919D068E8380919E0684
:100E60008D83809199068B8380919A068A838091E5
:100E70009B068983CE0101960E947E1560938706AA
:100E8000709388068093890690938A06F8948091DF
:100E9000940690919506A0919606B091970680933E
:100EA000740690937506A0937606B09377068091AA
:100EB00084009091850090937306809372067894D5
:100EC00080918B06882321F00E946B0481118FC1D1
:100ED00010928B068091530690915406029741F42C
:100EE00064E670E080E090E00E94CD0910928B06ED
:100EF0008091530690915406039709F0B5C18091F3
:100F00008B06882331F168E275E087E497E00E9460
:100F1000770B40918E0650918F06609190067091EC
:100F200091062AE030E087E497E00E94630C63E6D4
:100F300075E087E497E00E94770B60918C067091D2
:100F40008D064AE050E087E497E00E94940C1092EE
:100F50008B0681E796E00E94C802182F8130D9F4F1
:100F60006BE275E087E497E00E94A60B60E475E011
:100F700087E497E00E94A60B87E497E00E94110E99
:100F800068EE73E080E090E00E94CD090E945B046F
:100F90001093040269C12BE636E04DE656E06FE699
:100FA00076E081E796E00E944602F89480919406EC
:100FB00090919506A0919606B091970680937D0634
:100FC00090937E06A0937F06B09380068091840064
:100FD0009091850090937C0680937B067894809115
:100FE0000402882319F010920402E8C0809186065A
:100FF0008F93809185068F93809184068F93809143
:1010000083068F9385E595E09F938F9388EF95E016
:101010009F938F930E94A516809182068F93809153
:1010200081068F938BE595E09F938F9382EF95E0F8
:101030009F938F930E94A5166FE575E083E096E07D
:101040000E947C1668EF75E083E096E00E946616C9
:1010500063E675E083E096E00E94661662EF75E055
:1010600083E096E00E94661663E675E083E096E012
:101070000E94661663E076E087E497E00E94770BB3
:1010800060916F0670917006882777FD8095982F84
:101090000E94D8170FB6F894DEBF0FBECDBF20E078
:1010A00030E0A9010E94E41887FD06C06BE772E0FA
:1010B00087E497E00E94770B60916F06709170064D
:1010C000882777FD8095982F0E94D8172FE632E168
:1010D00043E85BE30E94E818AB01BC0124E030E088
:1010E00087E497E00E94A70D63E675E087E497E048
:1010F0000E94770B60916D0670916E06882777FDD0
:101100008095982F0E94D81720E030E0A9010E9416
:10111000E41887FD06C06BE772E087E497E00E9461
:10112000770B60916D0670916E06882777FD80952C
:10113000982F0E94D8172FE632E143E85BE30E9424
:10114000E818AB01BC0124E030E087E497E00E949E
:10115000A70D63E675E087E497E00E94770B609146
:101160006B0670916C06882777FD8095982F0E94FA
:10117000D81720E030E0A9010E94E41887FD06C0DE
:101180006BE772E087E497E00E94770B60916B0653
:1011900070916C06882777FD8095982F0E94D8174C
:1011A0002FE632E143E85BE30E94E818AB01BC01A3
:1011B00024E030E087E497E00E94A90D80917D064D
:1011C00090917E06A0917F06B09180068093830661
:1011D00090938406A0938506B093860680917B0643
:1011E00090917C0690938206809381063DC062E6D2
:1011F00075E087E497E00E94770B40918E0650914E
:101200008F0660919006709191062AE030E087E4A5
:1012100097E00E94630C63E675E087E497E00E9424
:10122000770B60918C0670918D064AE050E087E460
:1012300097E00E948E0C63E675E087E497E00E94D9
:10124000770B4091870650918806609189067091CE
:101250008A064F5F5F4F6F4F7F4F2AE030E087E491
:1012600097E00E94AA0C34CE27960FB6F894DEBF02
:101270000FBECDBFDF91CF911F91089587E497E016
:101280000E94C80D181619062CF487E497E00E94F6
:10129000F10D02C080E090E00E9471060E94FC0601
:1012A0008091EE059091EF0501969093EF05809364
:1012B000EE050B9730F00E944B061092EF0510924E
:1012C000EE0508951F920F920FB60F9211242F93DF
:1012D0003F938F939F93AF93BF938091D906909143
:1012E000DA06A091DB06B091DC063091D8062FE437
:1012F000230F2D3720F40196A11DB11D05C022ED4D
:10130000230F0296A11DB11D2093D8068093D90604
:101310009093DA06A093DB06B093DC068091DD069D
:101320009091DE06A091DF06B091E0060196A11D26
:10133000B11D8093DD069093DE06A093DF06B09387
:10134000E006BF91AF919F918F913F912F910F90A8
:101350000FBE0F901F9018959FB7F8944091DD062F
:101360005091DE066091DF067091E00686B5A89B7D
:1013700006C08F3F21F04F5F5F4F6F4F7F4F9FBF82
:101380002227342F452F562F280F311D411D511D67
:10139000A6E0B0E00E94C71D0895CF92DF92EF92C1
:1013A000FF92CF93DF936B017C010E94AC09EB01AC
:1013B000C114D104E104F10479F00E94AC096C1B62
:1013C0007D0B683E7340A0F381E0C81AD108E108A4
:1013D000F108C851DC4FECCFDF91CF91FF90EF9037
:1013E000DF90CF900895789484B5826084BD84B5F1
:1013F000816084BD85B5826085BD85B5816085BD10
:10140000EEE6F0E0808181608083E1E8F0E0108228
:10141000808182608083808181608083E0E8F0E069
:10142000808181608083E1EBF0E080818460808353
:10143000E0EBF0E0808181608083E1E9F0E0808191
:1014400082608083808181608083E0E9F0E0808138
:1014500081608083E1EAF0E0808182608083808126
:1014600081608083E0EAF0E0808181608083E1E256
:10147000F1E0808182608083808181608083E0E20E
:10148000F1E0808181608083EAE7F0E08081846020
:10149000808380818260808380818160808380817D
:1014A000806880831092C100089590E0FC0131971C
:1014B000E131F10508F048C0EE58FF4F0C94B21D21
:1014C000809180008F7703C0809180008F7D809312
:1014D0008000089584B58F7702C084B58F7D84BD68
:1014E00008958091B0008F7703C08091B0008F7D08
:1014F0008093B0000895809190008F7707C080910D
:1015000090008F7D03C080919000877F8093900032
:1015100008958091A0008F7707C08091A0008F7DF3
:1015200003C08091A000877F8093A00008958091E0
:1015300020018F7707C0809120018F7D03C08091AB
:101540002001877F809320010895CF93DF9390E05F
:10155000FC01E75EFC4F2491FC01E15AFC4F8491B1
:10156000882349F190E0880F991FFC01E154FC4F5A
:10157000A591B4918B559C4FFC01C591D4919FB717
:10158000611108C0F8948C91209582238C938881F6
:1015900082230AC0623051F4F8948C91322F309536
:1015A00083238C938881822B888304C0F8948C9148
:1015B000822B8C939FBFDF91CF9108950F931F9340
:1015C000CF93DF931F92CDB7DEB7282F30E0F9011C
:1015D000ED52FD4F8491F901E75EFC4F1491F90142
:1015E000E15AFC4F04910023C9F0882321F069835C
:1015F0000E94550A6981E02FF0E0EE0FFF1FEB55C6
:10160000FC4FA591B4919FB7F8948C91611103C0E0
:101610001095812301C0812B8C939FBF0F90DF9188
:10162000CF911F910F910895CF92DF92EF92FF9289
:101630000F931F93CF93DF936C017A01EB01E60EBA
:10164000F71E00E010E0CE15DF0561F06991D601CC
:10165000ED91FC910190F081E02DC6011995080FE4
:10166000191FF1CFC801DF91CF911F910F91FF900A
:10167000EF90DF90CF9008956115710581F0DB0147
:101680000D900020E9F7AD0141505109461B570B61
:10169000DC01ED91FC910280F381E02D199480E052
:1016A00090E00895EF92FF920F931F93CF93DF93F3
:1016B0008C01FB01C0E0D0E064917F018FEFE81A5C
:1016C000F80A662361F0D801ED91FC910190F08158
:1016D000E02DC8011995C80FD91FF701EDCFCE0134
:1016E000DF91CF911F910F91FF90EF9008950C948F
:1016F0003C0BDC01ED91FC910190F081E02D1994FF
:101700000F931F93CF93DF93EC016DE00E94790B51
:101710008C016AE0CE010E94790B800F911FDF914E
:10172000CF911F910F9108950F931F93CF93DF9344
:10173000EC010E94520B8C01CE010E94800B800FA5
:10174000911FDF91CF911F910F9108950F931F93D8
:10175000CF93DF93EC010E943C0B8C01CE010E94E1
:10176000800B800F911FDF91CF911F910F910895F2
:101770008F929F92AF92BF92CF92DF92EF92FF92A1
:101780000F931F93CF93DF93CDB7DEB7A1970FB61B
:10179000F894DEBF0FBECDBF7C01C42EE52FCB0178
:1017A000D22E19A221E02D1510F02AE0D22E8E01A2
:1017B0000F5D1F4F8D2C912CA12CB12C6C2D7E2FE9
:1017C000A50194010E94901D8C2DD29E8019112498
:1017D000015011098A3014F4805D01C0895CF80160
:1017E0008083211531054105510521F0C22EE32FDB
:1017F000CA01E4CFB801C7010E943C0BA1960FB605
:10180000F894DEBF0FBECDBFDF91CF911F910F9136
:10181000FF90EF90DF90CF90BF90AF909F908F9010
:101820000895CF92DF92EF92FF920F931F93CF9381
:10183000DF93EC016A017B012115310579F4E88120
:10184000F9810190F081E02D642FDF91CF911F91FC
:101850000F91FF90EF90DF90CF9019942A303105CF
:10186000E9F477FF1AC06DE20E94790B8C014427DE
:101870005527BA014C195D096E097F092AE0CE018E
:101880000E94B80B800F911FDF91CF911F910F9194
:10189000FF90EF90DF90CF9008952AE0B701A60166
:1018A000CE01DF91CF911F910F91FF90EF90DF90CC
:1018B000CF900C94B80B9A01AB01662757FD609549
:1018C000762F0C94110C2115310541F4DC01ED91BA
:1018D000FC910190F081E02D642F19940C94B80BC9
:1018E0009A01462F50E060E070E00C94630C0F9377
:1018F0001F93CF93DF93EC019A01462F50E060E0F5
:1019000070E00E94630C8C01CE010E94800B800F5E
:10191000911FDF91CF911F910F9108959A01AB0113
:1019200060E070E00C94630C0F931F93CF93DF93F0
:10193000EC019A01AB0160E070E00E94630C8C0145
:10194000CE010E94800B800F911FDF91CF911F91DC
:101950000F9108950F931F93CF93DF93EC010E9493
:10196000630C8C01CE010E94800B800F911FDF91D0
:10197000CF911F910F9108954F925F926F927F9236
:101980008F929F92AF92BF92CF92DF92EF92FF928F
:101990000F931F93CF93DF93EC016A017B01B22E6B
:1019A0009A01AB01C701B6010E944B19882319F0B7
:1019B00065E675E027C026013701E89477F82FEF38
:1019C0003FEF4FE75FE7C301B2010E944B1981115E
:1019D0000DC02FEF3FEF4FE75FE7C301B2010E9459
:1019E000391718161CF469E675E00CC02FEF3FEFAD
:1019F0004FE75FE4C701B6010E94E4181816ACF483
:101A00006DE675E0CE01DF91CF911F910F91FF90B0
:101A1000EF90DF90CF90BF90AF909F908F907F908E
:101A20006F905F904F900C943C0B2FEF3FEF4FE780
:101A30005FECC701B6010E94391787FDE1CF20E0B6
:101A400030E0A901C701B6010E94391787FF0AC01B
:101A50006DE2CE010E94790B8C01F7FAF094F7F851
:101A6000F09402C000E010E0A12C60E070E080E0A3
:101A70009FE3AB1441F020E030E040E251E40E94EB
:101A80003D17A394F6CF9B01AC01C701B6010E949C
:101A9000D5166B017C010E94AA172B013C010E9404
:101AA000D6179B01AC01C701B6010E94D4166B0189
:101AB0007C012AE0B301A201CE010E94B80B080FFD
:101AC000191FBB2039F067E874E0CE010E943C0B7F
:101AD000080F191F7B2C772041F120E030E040E215
:101AE00051E4C701B6010E94E8186B017C010E9415
:101AF000A5174B01AA2497FCA094BA2C2AE030E049
:101B0000B501A401CE010E94110C080F191FC501D7
:101B1000B4010E94D8179B01AC01C701B6010E9415
:101B2000D4166B017C017A94D6CFC801DF91CF9196
:101B30001F910F91FF90EF90DF90CF90BF90AF90EB
:101B40009F908F907F906F905F904F9008950C942E
:101B5000BC0C0F931F93CF93DF93EC010E94BC0C3E
:101B60008C01CE010E94800B800F911FDF91CF91DD
:101B70001F910F9108950E94F3090E948F04C2E4FF
:101B8000DFE00E943E092097E1F30E94420FF9CF67
:101B9000FC0124853585F901E05CFF4F808191814E
:101BA000329620813181821B930B8F739927089580
:101BB000FC0184859585FC01E05CFF4F40815181EB
:101BC0003296208131814217530741F00190F08114
:101BD000E02DE80FF91F808190E008958FEF9FEFCF
:101BE0000895FC0184859585FC01E05CFF4F4081F0
:101BF00051813296208131814217530779F0A081BB
:101C0000B181A80FB91F8C91208131812F5F3F4F87
:101C10002F7333273183208390E008958FEF9FEF58
:101C20000895FC0181A1882329F0A489B5898C91AC
:101C300086FFFBCF11A20895CF93DF93FC01268589
:101C40003785D901A05CBF4F8D919C91119701966A
:101C50008F739927E901CE5BDF4F48815981841743
:101C60009507D9F30D90BC91A02DA20FB31F6C93D3
:101C7000A685B785A05CBF4F11969C938E93A689CD
:101C8000B7892C9181E090E0078C02C0880F991FE2
:101C90000A94E2F7282B2C9381E081A30488F5892C
:101CA000E02D80818064808381E090E0DF91CF919E
:101CB0000895FB01E05CFF4F208131812F5F3F4F92
:101CC0002F733327DB01AE5BBF4F4D915C9124171F
:101CD000350739F0A081B181A60FB71F8C933183EE
:101CE0002083089508951F920F920FB60F9211242A
:101CF0000BB60F922F933F934F935F936F937F9306
:101D00008F939F93AF93BF93EF93FF938091C00006
:101D100082FD07C08091C60065E479E00E94590EFB
:101D200002C08091C600FF91EF91BF91AF919F914A
:101D30008F917F916F915F914F913F912F910F9074
:101D40000BBE0F900FBE0F901F90189508951F9215
:101D50000F920FB60F9211240BB60F922F933F9351
:101D60004F935F936F937F938F939F93AF93BF93A3
:101D7000EF93FF938091C80082FD07C08091CE0051
:101D80006DEB78E00E94590E02C08091CE00FF9169
:101D9000EF91BF91AF919F918F917F916F915F91E3
:101DA0004F913F912F910F900BBE0F900FBE0F9050
:101DB0001F90189508951F920F920FB60F9211243D
:101DC0000BB60F922F933F934F935F936F937F9335
:101DD0008F939F93AF93BF93EF93FF938091D00026
:101DE00082FD07C08091D60065E378E00E94590E1D
:101DF00002C08091D600FF91EF91BF91AF919F916A
:101E00008F917F916F915F914F913F912F910F90A3
:101E10000BBE0F900FBE0F901F90189508951F9244
:101E20000F920FB60F9211240BB60F922F933F9380
:101E30004F935F936F937F938F939F93AF93BF93D2
:101E4000EF93FF938091300182FD07C080913601AE
:101E50006DEA77E00E94590E02C080913601FF9131
:101E6000EF91BF91AF919F918F917F916F915F9112
:101E70004F913F912F910F900BBE0F900FBE0F907F
:101E80001F90189587E497E00E94C80D892B11F0E8
:101E90000E94720E85E297E00E94C80D892B11F016
:101EA0000E94A60E83E097E00E94C80D892B11F0D6
:101EB0000E94DA0E81EE96E00E94C80D892B11F087
:101EC0000C940E0F08951F920F920FB60F921124CB
:101ED0000BB60F922F933F938F939F93EF93FF93A4
:101EE0002091410930914209809143099091440920
:101EF0002817390731F48091C1008F7D8093C1008C
:101F000014C0E0914309F0914409EF5FF64F20813E
:101F1000809143099091440901968F73992790937A
:101F20004409809343092093C600FF91EF919F914C
:101F30008F913F912F910F900BBE0F900FBE0F907E
:101F40001F9018951F920F920FB60F9211240BB687
:101F50000F922F933F938F939F93EF93FF93209133
:101F6000B9083091BA088091BB089091BC08281735
:101F7000390731F48091C9008F7D8093C90014C066
:101F8000E091BB08F091BC08E758F74F20818091A1
:101F9000BB089091BC0801968F7399279093BC0859
:101FA0008093BB082093CE00FF91EF919F918F917A
:101FB0003F912F910F900BBE0F900FBE0F901F906F
:101FC00018951F920F920FB60F9211240BB60F9215
:101FD0002F933F938F939F93EF93FF93209131081B
:101FE00030913208809133089091340828173907CE
:101FF00031F48091D1008F7D8093D10014C0E091A5
:102000003308F0913408EF50F84F20818091330865
:102010009091340801968F73992790933408809398
:1020200033082093D600FF91EF919F918F913F91BC
:102030002F910F900BBE0F900FBE0F901F90189511
:102040001F920F920FB60F9211240BB60F922F937F
:102050003F938F939F93EF93FF932091A907309124
:10206000AA078091AB079091AC072817390731F484
:10207000809131018F7D8093310114C0E091AB07D5
:10208000F091AC07E759F84F20818091AB07909110
:10209000AC0701968F7399279093AC078093AB0799
:1020A00020933601FF91EF919F918F913F912F9156
:1020B0000F900BBE0F900FBE0F901F901895CF92F0
:1020C000DF92EF92FF92CF93DF93EC016A017B01E5
:1020D000EC89FD8981E090E008A002C0880F991F7B
:1020E0000A94E2F7808360EA75E286E290E0A70155
:1020F00096010E94901D21503109410951095695C0
:10210000479537952795211580E1380798F0EC8998
:10211000FD89108260ED72E183E190E0A7019601F4
:102120000E94901D2150310941095109569547954A
:1021300037952795E889F9893083EA89FB892083D7
:1021400019A2EE89FF89408181E090E09C010C8C0E
:1021500002C0220F331F0A94E2F7422B4083EE891C
:10216000FF8940819C010D8C02C0220F331F0A940D
:10217000E2F7422B4083EE89FF8940819C010E8C5F
:1021800002C0220F331F0A94E2F7422B4083EE89EC
:10219000FF8920810F8C02C0880F991F0A94E2F7F3
:1021A000809582238083DF91CF91FF90EF90DF9025
:1021B000CF900895CF93DF93FC0186859785DC014E
:1021C000A05CBF4FEC01CE5BDF4F4D915C9111974E
:1021D0002881398142175307C1F7A689B7894C91E5
:1021E00081E090E09C01048C02C0220F331F0A940E
:1021F000E2F7209524232C93A689B7894C919C0162
:10220000058C02C0220F331F0A94E2F72095242385
:102210002C93A689B7894C919C01068C02C0220F91
:10222000331F0A94E2F7209524232C93A689B789BB
:102230002C91078C02C0880F991F0A94E2F78095B1
:1022400082238C9384859585FC01EE5BFF4F208172
:102250003181329731832083DF91CF910895CF93DD
:1022600010924A071092490788EE93E0A0E0B0E090
:1022700080934B0790934C07A0934D07B0934E0764
:1022800025E735E0309348072093470745E459E0B8
:10229000509354074093530741E059E05093560739
:1022A0004093550745EC50E050935807409357072B
:1022B00044EC50E050935A074093590740EC50E0EB
:1022C00050935C0740935B0741EC50E050935E07EE
:1022D00040935D0742EC50E05093600740935F07E6
:1022E00046EC50E05093620740936107C4E0C0930E
:1022F0006307F3E0F0936407E7E0E093650775E0B8
:102300007093660761E06093670710922807109248
:1023100027078093290790932A07A0932B07B09350
:102320002C0730932607209325074DEB58E0509358
:1023300032074093310749E758E050933407409300
:1023400033074DEC50E050933607409335074CEC83
:1023500050E0509338074093370748EC50E05093D3
:102360003A074093390749EC50E050933C074093BB
:102370003B074AEC50E050933E0740933D074EEC3C
:1023800050E05093400740933F07C0934107F093BC
:102390004207E09343077093440760934507109208
:1023A0000607109205078093070790930807A093EC
:1023B0000907B0930A07309304072093030745E306
:1023C00058E05093100740930F0741EF57E05093A8
:1023D00012074093110745ED50E0509314074093C6
:1023E000130744ED50E0509316074093150740ED56
:1023F00050E0509318074093170741ED50E0509379
:102400001A074093190742ED50E050931C07409380
:102410001B0746ED50E050931E0740931D07C093E5
:102420001F07F0932007E093210770932207609322
:1024300023071092E4061092E3068093E50690933A
:10244000E606A093E706B093E8063093E2062093F1
:10245000E1068DEA97E09093EE068093ED0689E61B
:1024600097E09093F0068093EF0685E391E09093D8
:10247000F2068093F10684E391E09093F406809352
:10248000F30680E391E09093F6068093F50681E3EE
:1024900091E09093F8068093F70682E391E09093A1
:1024A000FA068093F90686E391E09093FC06809308
:1024B000FB06C093FD06F093FE06E093FF067093C3
:1024C000000760930107CF91089561E085E30E94C2
:1024D000DE0A61E085E30E94A50A8CB580618CBDAF
:1024E0008CB580648CBD61E084E30E94A50A61E044
:1024F00083E30C94A50A9CB5937F982B9CBD08950B
:102500002CB5982F93702C7F922B9CBD9DB582FB90
:10251000882780F99E7F982B9DBD08954F925F92EA
:102520006F927F928F929F92AF92BF92CF92DF92E3
:10253000EF92FF920F931F93CF93DF93EC018B01E8
:10254000FB0101900020E9F7E61BF70B3597DB0153
:10255000AE0FBF1F8C918A3241F421E0822F90E0B0
:102560008E179F0710F42F5FF9CF61E875E0C8015F
:102570000E948316892B09F4DDC06CE270E0C8016B
:102580000E9471168C010F5F1F4FC8010E943916FF
:102590006B017C0120E030E0A9010E94E41820E0FA
:1025A00030E040E05FE387FD05C0C701B6010E944F
:1025B000D51604C0C701B6010E94D4160E94A51703
:1025C0000E94D8176B017C010E94AA172B013C01C5
:1025D00020E137E240E050E00E94901D288344E66D
:1025E000842E912CA12CB12CA50194010E94901D48
:1025F0002983C301B201A50194010E94901D6A8341
:1026000020E030E040E85FE3C701B6010E941A18FD
:1026100020E030E04AE754E40E94E8180E94AA173C
:102620007F836E836CE270E0C8010E9471168C019A
:102630000F5F1F4FC8010E943916688779878A8704
:102640009B876CE270E0C8010E947116FC01218139
:102650002E3411F0233511F428A705C02C3211F0C7
:1026600080E058C118A66CE270E001960E947116D5
:102670008C010F5F1F4FC8010E9439166C877D8740
:102680008E879F876CE270E0C8010E947116FC0182
:102690002181273511F0253411F429A703C02C32EC
:1026A000F9F619A66CE270E001960E9471168C0191
:1026B0000F5F1F4FC8010E943D168CA76CE270E0AF
:1026C000C8010E9471168C010F5F1F4FC8010E9444
:1026D0003D168DA76CE270E0C8010E9471168C0156
:1026E0000F5F1F4FC8010E9439166CA37DA38EA3F4
:1026F0009FA36CE270E0C8010E9471168C010F5F0D
:102700001F4FC8010E9439166C8B7D8B8E8B9F8B5F
:102710006CE270E0C8010E9471166CE270E00196F4
:102720000E94711601960E943916688B798B8A8BEC
:102730009B8BEFC068E875E0C8010E948316892B67
:1027400009F48ECF6CE270E0C8010E9471168C0112
:102750000F5F1F4FC8010E9439166B017C0120E0FA
:1027600030E0A9010E94E41820E030E040E05FE39F
:1027700087FD05C0C701B6010E94D51604C0C70178
:10278000B6010E94D4160E94A5170E94D8176B01AB
:102790007C010E94AA172B013C0120E137E240E0B6
:1027A00050E00E94901D288334E6832E912CA12CAA
:1027B000B12CA50194010E94901D2983C301B2018F
:1027C000A50194010E94901D6A8320E030E040E85A
:1027D0005FE3C701B6010E941A1820E030E04AE723
:1027E00054E40E94E8180E94AA177F836E836CE26B
:1027F00070E0C8010E947116FC012181213419F496
:1028000021E02BA704C0263509F02ACF1BA66CE2D5
:1028100070E001960E9471168C010F5F1F4FC80176
:102820000E943916688779878A879B876CE270E0F7
:10283000C8010E947116FC0121812E3411F023354C
:1028400011F428A704C02C3209F00ACF18A66CE2B4
:1028500070E001960E9471168C010F5F1F4FC80136
:102860000E9439166C877D878E879F876CE270E0A7
:10287000C8010E947116FC012181273511F0253411
:1028800011F429A704C02C3209F0EACE19A66CE293
:1028900070E001960E9471168C010F5F1F4FC801F6
:1028A0000E943916688F798F8A8F9B8F6CE270E057
:1028B000C8010E9471168C010F5F1F4FC8010E9452
:1028C00039166C8F7D8F8E8F9F8F6CE270E0C80100
:1028D0000E94711601960E9439160E94AA174B0198
:1028E0005C0120E137E240E050E00E94901D2D8322
:1028F00024E6C22ED12CE12CF12CA70196010E94D6
:10290000901D2C83C501B401A70196010E94901D62
:102910006B8381E0DF91CF911F910F91FF90EF903A
:10292000DF90CF90BF90AF909F908F907F906F90EF
:102930005F904F900895CF93DF93EC018AAD882389
:1029400011F080E05FC08DAD9EADDC01ED91FC919A
:102950000480F581E02D1995892B99F38DAD9EADFD
:10296000DC01ED91FC910680F781E02D1995209115
:102970008C0930918D09843249F490918E09F901C6
:10298000E90FF11D108210928E0928C08A3031F5AE
:1029900090918E09F901E90FF11D108220918C09A7
:1029A00030918D09BAE027303B0739F44FE859E000
:1029B00050938D0940938C0908C027E03AE030938A
:1029C0008D0920938C092FE839E030938B092093EF
:1029D0008A0910928E0991E090938909E0918C09FF
:1029E000F0918D0990918E0921E0290F20938E0995
:1029F000E90FF11D808390918E09983718F097E7C1
:102A000090938E09DF91CF910895FC0114AE13AE1F
:102A100016AE15AE1092890912AE10928E0987E09B
:102A20009AE090938D0980938C098FE899E09093B8
:102A30008B0980938A0915A614A615821482138225
:102A400012821182108212A611A610A613A6178256
:102A5000168214A215A216A217A210A211A212A2E7
:102A600013A2148E158E168E178E108E118E128E46
:102A7000138E148A158A168A178A108A118A128A66
:102A8000138A148615861686178610861186128676
:102A9000138608950F931F93CF93DF93EC018B015F
:102AA0000E9405151EAF0DAFDF91CF911F910F91C1
:102AB0000895FC0183AD94ADAB0160E070E0009738
:102AC00011F485AD96AD0E945F106AE070E080E081
:102AD00090E00C94CD09FC0183AD94AD009711F406
:102AE00085AD96AD0C94A60B80918909089510923E
:102AF000890980918A0990918B0908956F927F923C
:102B00008F929F92AF92BF92CF92DF92EF92FF92FD
:102B10000F931F93CF93DF93FC01C680AC2DB0E0E1
:102B200020E833E341EE51E00E94C71D4B015C01F8
:102B300022EB37E06D01C4E6D0E000E911E0C90105
:102B4000825B97408C159D05DCF4C9018370992741
:102B5000892B99F4C901BE010E947C1D892B31F497
:102B6000C901B8010E947C1D892B39F480E8880EC8
:102B700081E5981E81E0A81EB11C2F5F3F4FDFCF7B
:102B80006580712C8EE4C81A88EFD80AC60164E605
:102B900070E00E947C1D8C01C60160E971E00E941A
:102BA0007C1D7C01C1E0D0E083E0C822DD24C61595
:102BB000D7052CF5C230D10589F4C114D10471F4C4
:102BC0000115110519F4E114F10441F480E8880EAF
:102BD0008BE3981E86E2A81EB11C0FC0DE01AF5128
:102BE000BA4FAC91B0E020E831E541E050E00E94FE
:102BF000C71D860E971EA81EB91E2196D8CF4181EB
:102C0000228130E0A0E1BEE00E94B81D6B017C0192
:102C1000242F30E0ACE3B0E00E94B81DC60ED71EF2
:102C2000E81EF91E8081C80ED11CE11CF11CA48194
:102C3000B0E0119720E831E541E050E00E94D21D5C
:102C4000C60ED71EE81EF91EC80CD91CEA1CFB1CB8
:102C5000C701B601DF91CF911F910F91FF90EF90C7
:102C6000DF90CF90BF90AF909F908F907F906F90AC
:102C70000895662777270C944A1BFC01882799271B
:102C8000E89421912032E9F3293010F02E30C8F376
:102C90002B3241F02D3239F4689404C00E949D1605
:102CA000820F911D219120532A30C0F31EF490957C
:102CB00081959F4F0895F8940C94F21D91115BC675
:102CC000803219F089508550D0F70895FB01DC015E
:102CD0000D900020E9F7119701900D920020E1F787
:102CE0000895FC018191861721F08823D9F799274F
:102CF00008953197CF010895FB01DC0101900D92F9
:102D00000020E1F70895FB0151915523A9F0BF017F
:102D1000DC014D9145174111E1F759F4CD010190C6
:102D2000002049F04D9140154111C9F3FB014111BB
:102D3000EFCF81E090E0019708957AE0979F902D82
:102D4000879F802D910D112408950F931F93CF938A
:102D5000DF93CDB7DEB72E970FB6F894DEBF0FBE68
:102D6000CDBF0E891F8986E08C831A8309838FEF7C
:102D70009FE79E838D83AE01465E5F4F688D798DA0
:102D8000CE0101960E944F19EF81F885E00FF11FE7
:102D900010822E960FB6F894DEBF0FBECDBFDF9126
:102DA000CF911F910F9108955058BB27AA270ED09D
:102DB000D1C1C2D130F0C7D120F031F49F3F11F41E
:102DC0001EF4B7C10EF4E095E7FB9FC1E92FD3D104
:102DD00080F3BA17620773078407950718F071F438
:102DE0009EF5EBC10EF4E0950B2EBA2FA02D0B0132
:102DF000B90190010C01CA01A0011124FF27591B40
:102E000099F0593F50F4503E68F11A16F040A22F45
:102E1000232F342F4427585FF3CF469537952795B6
:102E2000A795F0405395C9F77EF41F16BA0B620BB5
:102E3000730B840BBAF09150A1F0FF0FBB1F661FFC
:102E4000771F881FC2F70EC0BA0F621F731F841F3F
:102E500048F4879577956795B795F7959E3F08F065
:102E6000B3CF9395880F08F09927EE0F9795879524
:102E7000089527D108F481E008950CD06BC163D187
:102E800040F05AD130F021F45F3F19F03EC15111AA
:102E900095C14FC170D198F39923C9F35523B1F36C
:102EA000951B550BBB27AA2762177307840738F0B9
:102EB0009F5F5F4F220F331F441FAA1FA9F333D018
:102EC0000E2E3AF0E0E830D091505040E695001CCC
:102ED000CAF729D0FE2F27D0660F771F881FBB1F88
:102EE000261737074807AB07B0E809F0BB0B802D62
:102EF000BF01FF2793585F4F2AF09E3F510568F0AE
:102F000004C15CC15F3FECF3983EDCF38695779596
:102F10006795B795F7959F5FC9F7880F911D9695AF
:102F2000879597F90895E1E0660F771F881FBB1F0B
:102F3000621773078407BA0720F0621B730B840BB8
:102F4000BA0BEE1F88F7E095089504D06894B1118C
:102F500035C1089518D188F09F5790F0B92F99275F
:102F6000B751A0F0D1F0660F771F881F991F1AF094
:102F7000BA95C9F712C0B13081F01FD1B1E0089500
:102F80001CC1672F782F8827B85F39F0B93FCCF381
:102F9000869577956795B395D9F73EF4909580958A
:102FA000709561957F4F8F4F9F4F0895E89409C0AA
:102FB00097FB3EF490958095709561957F4F8F4F6C
:102FC0009F4F9923A9F0F92F96E9BB279395F69582
:102FD000879577956795B795F111F8CFFAF4BB0F00
:102FE00011F460FF1BC06F5F7F4F8F4F9F4F16C064
:102FF000882311F096E911C0772321F09EE8872FEE
:10300000762F05C0662371F096E8862F70E060E0A9
:103010002AF09A95660F771F881FDAF7880F969522
:10302000879597F9089588D018F011F08CD038F46E
:1030300080C0C4C0E92F9FD0B0F35523C9F3E7FB8C
:103040006217730784079507A8F199F3E92FFF2703
:1030500088232AF03197660F771F881FDAF7952F9C
:103060005527442332F091505040220F331F441F04
:10307000D2F7BB27E91BF50B621B730B840BB1095D
:10308000C1F222F4620F731F841FB11D31972AF021
:10309000660F771F881FBB1FEFCF915050405AF02B
:1030A00041F0882332F0660F771F881F91505040FF
:1030B000C1F7939530C08695779567959F5FD9F74F
:1030C000F8CF990F0008550FAA0BE0E8FEEF16168F
:1030D0001706E807F907C0F012161306E407F5070C
:1030E00098F0621B730B840B950B39F40A2661F080
:1030F000232B242B252B21F408950A2609F4A14023
:10310000A6958FEF811D811D089597F99F6780E82F
:1031100070E060E008959F3F31F0915020F4879572
:1031200077956795B795880F911D9695879597F92F
:1031300008959FEF80EC089500240A941616170650
:1031400018060906089500240A9412161306140698
:1031500005060895092E0394000C11F4882352F0FB
:10316000BB0F40F4BF2B11F460FF04C06F5F7F4FB3
:103170008F4F9F4F089557FD9058440F551F59F09A
:103180005F3F71F04795880F97FB991F61F09F3F54
:1031900079F087950895121613061406551FF2CF7D
:1031A0004695F1DF08C0161617061806991FF1CFCD
:1031B00086957105610508940895E894BB276627F4
:1031C0007727CB0197F908957CDF08F48FEF0895F6
:1031D0000BD0C0CFB1DF28F0B6DF18F0952309F08F
:1031E00094CFA7CF1124EACFC6DFA0F3959FD1F3E8
:1031F000950F50E0551F629FF001729FBB27F00DA5
:10320000B11D639FAA27F00DB11DAA1F649F6627F9
:10321000B00DA11D661F829F2227B00DA11D621F48
:10322000739FB00DA11D621F839FA00D611D221F02
:10323000749F3327A00D611D231F849F600D211DE6
:10324000822F762F6A2F11249F5750408AF0E1F089
:1032500088234AF0EE0FFF1FBB1F661F771F881FD2
:1032600091505040A9F79E3F510570F04ECFA6CF28
:103270005F3FECF3983EDCF3869577956795B795BD
:10328000F795E7959F5FC1F7FE2B880F911D9695E7
:10329000879597F9089515DF880B990B08952F925C
:1032A0003F924F925F926F927F928F929F92AF92D6
:1032B000BF92CF92DF92EF92FF920F931F93CF9323
:1032C000DF93CDB7DEB72C970FB6F894DEBF0FBEF5
:1032D000CDBF7C016B018A01FC01178216828381BC
:1032E00081FFBDC1CE0101964C01F7019381F6012A
:1032F00093FD859193FF81916F01882309F4ABC100
:10330000853239F493FD859193FF81916F01853268
:1033100029F4B70190E00E94EC1CE7CF512C312C2E
:1033200020E02032A0F48B3269F030F4803259F082
:10333000833269F420612CC08D3239F0803339F446
:10334000216026C02260246023C0286021C027FDA0
:1033500027C030ED380F3A3078F426FF06C0FAE087
:103360005F9E300D1124532E13C08AE0389E300D1D
:103370001124332E20620CC08E3221F426FD6BC145
:10338000206406C08C3611F4206802C0883641F4EF
:10339000F60193FD859193FF81916F018111C1CF5A
:1033A000982F9F7D9554933028F40C5F1F4FFFE3B7
:1033B000F9830DC0833631F0833771F0833509F01E
:1033C0005BC022C0F801808189830E5F1F4F4424B7
:1033D0004394512C540115C03801F2E06F0E711C5A
:1033E000F801A080B18026FF03C0652D70E002C007
:1033F0006FEF7FEFC5012C870E94E11C2C01830138
:103400002C852F77222E17C03801F2E06F0E711C29
:10341000F801A080B18026FF03C0652D70E002C0D6
:103420006FEF7FEFC5012C870E94D61C2C012C85E5
:103430002068222E830123FC1BC0832D90E04816B8
:103440005906B0F4B70180E290E00E94EC1C3A9477
:10345000F4CFF50127FC859127FE81915F01B7012B
:1034600090E00E94EC1C31103A94F1E04F1A5108A0
:103470004114510471F7E5C0843611F0893639F5ED
:10348000F80127FF07C060817181828193810C5F01
:103490001F4F08C060817181882777FD8095982F24
:1034A0000E5F1F4F2F76B22E97FF09C09095809523
:1034B000709561957F4F8F4F9F4F2068B22E2AE005
:1034C00030E0A4010E941E1DA82EA81844C0853714
:1034D00029F42F7EB22E2AE030E025C0F22FF97FAA
:1034E000BF2E8F36C1F018F4883579F0B4C080371C
:1034F00019F0883721F0AFC02F2F2061B22EB4FE13
:103500000DC08B2D8460B82E09C024FF0AC09F2FE8
:103510009660B92E06C028E030E005C020E130E01A
:1035200002C020E132E0F801B7FE07C0608171817E
:10353000828193810C5F1F4F06C06081718180E0A2
:1035400090E00E5F1F4FA4010E941E1DA82EA81818
:10355000FB2DFF77BF2EB6FE0BC02B2D2E7FA514A3
:1035600050F4B4FE0AC0B2FC08C02B2D2E7E05C05C
:103570007A2C2B2D03C07A2C01C0752C24FF0DC092
:10358000FE01EA0DF11D8081803311F4297E09C00E
:1035900022FF06C07394739404C0822F867809F0CA
:1035A000739423FD13C020FF06C05A2C731418F423
:1035B000530C5718732C731468F4B70180E290E031
:1035C0002C870E94EC1C73942C85F5CF731410F497
:1035D000371801C0312C24FF12C0B70180E390E0FE
:1035E0002C870E94EC1C2C8522FF17C021FF03C0F2
:1035F00088E590E002C088E790E0B7010CC0822F18
:10360000867859F021FD02C080E201C08BE227FDDF
:103610008DE2B70190E00E94EC1CA51438F4B701CC
:1036200080E390E00E94EC1C5A94F7CFAA94F40136
:10363000EA0DF11D8081B70190E00E94EC1CA11001
:10364000F5CF332009F451CEB70180E290E00E941B
:10365000EC1C3A94F6CFF7018681978102C08FEF78
:103660009FEF2C960FB6F894DEBF0FBECDBFDF9153
:10367000CF911F910F91FF90EF90DF90CF90BF906F
:10368000AF909F908F907F906F905F904F903F9002
:103690002F9008958F929F92AF92BF92CF92DF9218
:1036A000EF92FF920F931F93CF93DF938B016115DE
:1036B000710521F0DB018C9311969C93EC015E0166
:1036C000BFEFAB1ABB0A7501C8808C2D90E00E9439
:1036D0005E16892B11F0E501F2CFEDE2CE1208C0A3
:1036E0007E01F2E0EF0EF11CC980DD24D39409C005
:1036F0002BE2C21205C07E0142E0E40EF11CC9803B
:10370000D12CE701219743E050E061EE73E0CE0158
:103710000E94BE1C892BC1F4239645E050E06CED5D
:1037200073E0CE010E94BE1C892B09F42596011579
:10373000110519F0D801CD93DC93D11006C160E0DA
:1037400070E080E89FE70AC143E050E069ED73E074
:10375000CE010E94BE1C892B59F40115110509F4F4
:10376000F9C0B2E0EB0EF11CF801F182E082F2C088
:10377000F70160E070E0CB01C0E0D0E07F01A0ED98
:10378000AA2EAC0C29E02A1530F14D2D4260B42E42
:103790002D2D2870D2FE04C0211125C0219623C0F2
:1037A00021112197A5E0B0E09B01AC010E94C71D4B
:1037B000660F771F881F991F6A0D711D811D911D4E
:1037C0006839A9E97A078A07A9E19A0760F0BD2D4F
:1037D000B660BB2E08C02EEFA2120AC0D3FC50C0A8
:1037E0004D2D4860B42E3196D701CC90DB2CC6CF3E
:1037F0002C2D2F7D253409F043C0A081AD3241F43A
:10380000BD2DB061DB2E7F0122E0E20EF11C0CC069
:103810007F01AB3231F04FEFE41AF40A21E030E0DF
:1038200006C0A2E0EA0EF11CA18122E030E0A05324
:10383000AA3018F0E21AF30A23C0F70120E030E0C2
:103840002038BCE03B075CF4A901440F551F440F2E
:10385000551F240F351F220F331F2A0F311DAF01B3
:103860004F5F5F4F7A01A081A053AA3010F4FA0194
:10387000E7CFD4FE03C0319521953109C20FD31F84
:10388000D1FE09C00115110531F0E1E0EE1AF10891
:10389000D801ED92FC920E94D6172D2D2370233073
:1038A00019F04B015C0106C04B015C01B7FAB09402
:1038B000B7F8B09420E030E0A901C501B4010E943E
:1038C0003917882309F43EC0D7FF06C0D195C195AA
:1038D000D10908EF13E002C000E114E06801B8E18B
:1038E000CB1AD10890E2E92EF12CCE15DF0574F049
:1038F000F8012591359145915491C501B4010E947B
:10390000E8184B015C01CE19DF09EFCF0450110913
:10391000F594E7940C151D0541F78A2D880F8B2D22
:10392000881F8F3F49F020E030E0A901C501B401B4
:103930000E943917811106C082E290E09093800ABC
:1039400080937F0AC501B40109C060E070E080E89F
:103950009FEF04C060E070E080EC9FE7DF91CF91C3
:103960001F910F91FF90EF90DF90CF90BF90AF909D
:103970009F908F900895992788270895FB01DC0177
:103980004150504088F08D9181341CF08B350CF4FF
:10399000805E659161341CF06B350CF4605E861BB3
:1039A000611171F3990B0895881BFCCFFC01059000
:1039B000615070400110D8F7809590958E0F9F1F31
:1039C0000895FC016150704001900110D8F7809576
:1039D00090958E0F9F1F08950F931F93CF93DF93A2
:1039E000182F092FEB018B8181FD03C08FEF9FEF13
:1039F00020C082FF10C04E815F812C813D81421723
:103A000053077CF4E881F9819F012F5F3F4F398391
:103A10002883108306C0E885F985812F1995892BA5
:103A200029F72E813F812F5F3F4F3F832E83812FC8
:103A3000902FDF91CF911F910F910895FA01AA273E
:103A4000283051F1203181F1E8946F936E7F6E5FE1
:103A50007F4F8F4F9F4FAF4FB1E03ED0B4E03CD08F
:103A6000670F781F891F9A1FA11D680F791F8A1F72
:103A7000911DA11D6A0F711D811D911DA11D20D0D9
:103A800009F468943F912AE0269F11243019305D93
:103A90003193DEF6CF010895462F4770405D419384
:103AA000B3E00FD0C9F7F6CF462F4F70405D4A33D1
:103AB00018F0495D31FD4052419302D0A9F7EACF99
:103AC000B4E0A6959795879577956795BA95C9F7C8
:103AD00000976105710508959B01AC010A2E0694BB
:103AE0005795479537952795BA95C9F7620F731F74
:103AF000841F951FA01D089597FB072E16F40094B0
:103B000007D077FD09D00E94DE1D07FC05D03EF4EA
:103B1000909581959F4F0895709561957F4F089579
:103B2000A1E21A2EAA1BBB1BFD010DC0AA1FBB1FC1
:103B3000EE1FFF1FA217B307E407F50720F0A21B33
:103B4000B30BE40BF50B661F771F881F991F1A94A0
:103B500069F760957095809590959B01AC01BD01CA
:103B6000CF010895EE0FFF1F0590F491E02D1994F9
:103B7000A29FB001B39FC001A39F700D811D1124AE
:103B8000911DB29F700D811D1124911D08950E94F9
:103B9000B81DA59F900DB49F900DA49F800D911D01
:103BA00011240895B7FF0C94C71D0E94C71D821BE6
:103BB000930B08950790F691E02D1994AA1BBB1B57
:103BC00051E107C0AA1FBB1FA617B70710F0A61B1D
:103BD000B70B881F991F5A95A9F780959095BC013E
:083BE000CD010895F894FFCF18
:103BE8000A000D00015844415441203D2000095964
:103BF80044415441203D2000095A44415441203D4C
:103C080020000954656D7065726174757265203D98
:103C18002000537461727420427572737420526567
:103C28006164206F6620616C6C20436F6E74726FE4
:103C38006C2052656773202D204C6962726172791D
:103C48002076657273696F6E20362D352D323031CE
:103C5800343A00526567203230203D2000526567B3
:103C6800203231203D2000526567203232203D202D
:103C780000526567203233203D20005265672032AC
:103C880034203D2000526567203235203D20005207
:103C98006567203236203D20005265672032372084
:103CA8003D2000526567203238203D20005265676C
:103CB800203239203D2000526567203241203D20C6
:103CC80000526567203242203D200052656720324D
:103CD80043203D2000526567203244203D20005299
:103CE8006567203245203D200053657474696E670E
:103CF800204D656173657572656D656E74204D6FD5
:103D08006465202D20526567203244206265666F05
:103D18007265203D20002C205265672032442061C6
:103D280066746572203D20000954454D50203D20A1
:103D38000044432041637469766974792054687239
:103D48006573686F6C642073657420746F20002C31
:103D58002054696D65207468726573686F6C64209F
:103D680073657420746F20002C204143545F494EC2
:103D78004143545F43544C205265676973746572BC
:103D8800206973200041432041637469766974791E
:103D9800205468726573686F6C642073657420744E
:103DA8006F20002C2054696D652041637469766921
:103DB80074792073657420746F2000444320496E21
:103DC8006163746976697479205468726573686F81
:103DD8006C642073657420746F20002C2054696D06
:103DE8006520496E616374697669747920736574B6
:103DF80020746F2000414320496E616374697669BD
:103E08007479205468726573686F6C642073657484
:103E180020746F2000302C20536F66742052657315
:103E280065740A00302C2046696C74657220436FF3
:103E38006E74726F6C0A00302C20556C747261209D
:103E48004C6F77206E6F6973650A00302C414458B7
:103E58004C3336323A205374617274204D65617365
:103E68007572696E672E2E2E0024504D544B3331D7
:103E7800342C302C312C302C312C302C302C302C54
:103E8800302C302C302C302C302C302C302C302C4A
:103E9800302C302C302C302A32380024504D544BE2
:103EA8003232302C313030302A314600302C2D203F
:103EB800536B697070696E67205050533A20280020
:103EC8002F002900302C2D20646F6E652100302CC6
:103ED80050617273696E67204E4D45412073656E5F
:103EE80074656E6365732E2E2E00302C73746174A6
:103EF800653D3200302C73746174653D3300302C9D
:103F080073746174653D3100332C00302C44617446
:103F1800612052656164792054696D656F7574001C
:103F2800302C52657374617274696E67204144580D
:103F38004C333632002531306C750025357500322A
:103F48002C00312C006E616E00696E66006F76661B
:103F580000000000001C0E140BC80DF10DD80D1147
:103F68000E24475047474100244750524D430024F0
:103F7800504D544B3138352C302A32320024504DB4
:103F8800544B3030312C3138352C332A334300240C
:103F9800504D544B3138332A33380024504D544B4C
:103FA8004C4F470024504D544B3136312C302A3277
:103FB800380024504D544B3031302C3030322A32B6
:0E3FC80044001F1C1F1E1F1E1F1F1E1F1E1F3A
:00000001FF
