:100000000C940C020C943D020C943D020C943D02A5
:100010000C943D020C943D020C943D020C943D0264
:100020000C943D020C943D020C943D020C943D0254
:100030000C943D020C943D020C943D020C943D0244
:100040000C94AD020C943D020C943D020C943D02C4
:100050000C9488020C944C020C943D020C9488077A
:100060000C943D020C94990C0C94890D0C943D0257
:100070000C943D020C943D020C943D020C943D0204
:100080000C943D020C943D020C943D020C943D02F4
:100090000C94CD0C0C94C80D0C943D020C943D02B4
:1000A0000C943D020C943D020C943D020C943D02D4
:1000B0000C943D020C943D020C943D020C943D02C4
:1000C0000C943D020C943D020C943D020C94010DE5
:1000D0000C94070E0C943D020C94350D0C94460EB6
:1000E0000C943D029008930886088A08CA0897086D
:1000F0009B08A108A508A908AF08B308B708CA0853
:10010000BD08C108C5080C94420C0C94550F0C9402
:10011000CA080C94A9080C94BD080C9490080C947F
:10012000C5080C9497080C94A5080C94E6040C944C
:1001300093080C94A1080C9486080C94C1080C94A4
:10014000EE0B0C948A080C94170C0C94B7080C94C2
:100150003A090C949B080C94680D0C94B3080C9409
:10016000AF080C94FE0B0C94370C302C2D2D20472F
:1001700050532E7061727365284750532E6C617313
:10018000744E4D4541282929206661696C65642EAD
:100190002E2E002F3230002F002C20002E003A008F
:1001A0003A00302C2D204E4D454120706172736510
:1001B000643A2000302C2D204750532E706172730A
:1001C00065284750532E6C6173744E4D4541282964
:1001D00029206661696C65642E2E2E00302C205714
:1001E000616974696E6720666F7220505053207386
:1001F00069676E616C732E2E2E00302C2D20436F9C
:100200006E66696775726174696F6E20616C6C20CF
:10021000646F6E652E00302C2D2D20537461727426
:10022000696E672054696D65723120776974682042
:100230004F56462F4341505455524520696E7465C0
:1002400072727570747300646F6E652E00302C2DA1
:100250002D2053656E64696E6720696E69746961EB
:100260006C69736520636F6D6D616E6420746F20BF
:100270004750532E2E2E00302C2D20436F6E666972
:10028000677572696E6720475053206D6F64756C97
:10029000652E202E2E0A00302C2D20436F6E6669AD
:1002A000677572696E672044415120737973746574
:1002B0006D2E2E2E00302C576972656C657373207D
:1002C0004441512053797374656D2076312E302E60
:1002D0002E2E000000090A02080B0C0D070603046D
:1002E000010000000000000000000000000000000D
:1002F00000000000000000000000000000000011ED
:10030000100F0000000000000000000000000000CE
:10031000000000000000000000010210202008087A
:100320001020401020408002010201080402010157
:100330000204081020408080402010080402018040
:100340000402018040201008040201080402010197
:10035000020408102040800102040810204080059B
:10036000050505070508080808020202020A0A082E
:100370000804040404010101010101010103030354
:100380000303030303040707070C0C0C0C0C0C0CF1
:100390000C0202020206060606060606060B0B0BF8
:1003A0000B0B0B0B0B00002200250028002B002E4E
:1003B000003100340002010000050108010B0100BA
:1003C000002100240027002A002D00300033000106
:1003D000010000040107010A014E414E494E4954F3
:1003E00059494E46CDCCCC3D0AD7233C17B7D1381E
:1003F00077CC2B329595E6241FB14F0A000020419F
:100400000000C84200401C4620BCBE4CCA1B0E5A0D
:10041000AEC59D74E604550F11241FBECFEFD1E287
:10042000DEBFCDBF00E00CBF13E0A0E0B2E0EEE322
:10043000FAE300E00BBF02C007900D92A837B107A6
:10044000D9F728E0A8E7B3E001C01D92A730B207B2
:10045000E1F714E0C8E1D4E000E006C0229701090A
:10046000FE010BBF0E94051DC431D10780E00807C3
:10047000A9F70E94E10B0C9486150C9400008FEAFA
:1004800087BD8EE687BDEEE6F0E0808182608083E6
:1004900081E080931E0408951F920F920FB60F9271
:1004A00011240BB60F922F933F934F935F936F934B
:1004B0007F938F939F93AF93BF93EF93FF938FE1BE
:1004C00094E00E9498129091FE03992319F08111F3
:1004D0008093C600FF91EF91BF91AF919F918F9153
:1004E0007F916F915F914F913F912F910F900BBE34
:1004F0000F900FBE0F901F90189581110C943F0222
:1005000080916E008D7F80936E0010921E0408957E
:100510001F920F920FB60F9211248F939F93AF9358
:10052000BF9380911A0490911B04A0911C04B09178
:100530001D040196A11DB11D80931A0490931B0404
:10054000A0931C04B0931D04BF91AF919F918F9114
:100550000F900FBE0F901F9018951F920F920FB61D
:100560000F9211248F939F93AF93BF938091860036
:10057000909187009093190480931804B09B06C053
:10058000809118049091190497FF09C080911A0472
:1005900090911B04A0911C04B0911D040BC080918C
:1005A0001A0490911B04A0911C04B0911D040196A3
:1005B000A11DB11D8093140490931504A0931604FB
:1005C000B093170480911804909119049093130428
:1005D0008093120481E080931104BF91AF919F91A9
:1005E0008F910F900FBE0F901F901895CF93DF93B0
:1005F000CDB7DEB727970FB6F894DEBF0FBECDBFDD
:1006000081E090E09093DE038093DD039093E0031C
:100610008093DF031092E1031092E2031092E30350
:100620001092E4031092E5039093E9038093E803AA
:100630009093EB038093EA031092EC031092ED0386
:100640001092EE031092EF031092F00368EE73E045
:1006500080E090E00E94F30740E052EC61E070E03F
:100660008DEC94E00E94850E65EB72E08DEC94E0D9
:100670000E94BA0967E972E08DEC94E00E94BA0921
:1006800060E875E28FE194E00E94561367E772E03C
:100690008DEC94E00E9478096DE472E08DEC94E0BA
:1006A0000E9478090E943F0265E072E08FE194E0C9
:1006B0000E94681367E372E08FE194E00E94681380
:1006C00067E472E08DEC94E00E94BA0966E172E0A2
:1006D0008DEC94E00E94BA091092800081EC809326
:1006E000810010928200109285001092840081E2B5
:1006F00080936F006AEF71E08DEC94E00E94BA097C
:100700006CED71E08DEC94E00E94BA098091FF03DA
:10071000909100048330910580F5209111042130DF
:10072000E1F7109211040196909300048093FF0367
:1007300068E472E08DEC94E00E949D096091FF03F3
:10074000709100044AE050E08DEC94E00E94B40AFD
:100750006CE572E08DEC94E00E949D094AE050E067
:1007600063E070E08DEC94E00E94810A6EE572E037
:100770008DEC94E00E94CC09C9CF60E672E08DEC6C
:1007800094E00E94CC096AE672E08DEC94E00E944D
:10079000CC098091FF0390910004059708F0ADC04B
:1007A0008FE194E00E947113882309F495C08FE1D2
:1007B00094E00E947413BC018FE194E00E948B10BE
:1007C000811107C064EB71E08DEC94E00E94BA09DE
:1007D00083C080912204825E8F83809123048E8364
:1007E000809124048D8380911F048B838091200449
:1007F0008A83809121048983CE0101960E9480140E
:1008000060930D0470930E0480930F049093100472
:1008100062EA71E08DEC94E00E9478094AE050E0D1
:1008200060911F048DEC94E00E94960A60EA71E0EA
:100830008DEC94E00E9478094AE050E06091200439
:100840008DEC94E00E94960A6EE971E08DEC94E0E4
:100850000E9478094AE050E0609121048DEC94E018
:100860000E94960A6CE971E08DEC94E00E94780990
:1008700060912504709126044AE050E08DEC94E0EC
:100880000E94B40A69E971E08DEC94E00E94780955
:100890004AE050E0609124048DEC94E00E94960AB6
:1008A00067E971E08DEC94E00E9478094AE050E03D
:1008B000609123048DEC94E00E94960A63E971E054
:1008C0008DEC94E00E9478094AE050E060912204A7
:1008D0008DEC94E00E949D0A80911104813009F012
:1008E00058CF109211048091FF039091000401965B
:1008F000909300048093FF034CCF60E672E08DEC90
:1009000094E00E94CC0964E670E080E090E00E94F0
:10091000F30789E390E09093DC038093DB038AE3A1
:1009200090E09093E7038093E60360E089E30E9400
:10093000CB0860E08091E6030E94CB0861E08091E3
:1009400000020E94CB0881E090E09093DA0380934C
:10095000D90327960FB6F894DEBF0FBECDBFDF9147
:10096000CF91089565E370E087EF93E00E9446140D
:1009700087EF93E00E946C1466E872E08DEC94E0DF
:100980000C94CC090F931F9360911404709115047B
:1009900080911604909117040091FA031091FB03C3
:1009A0002091FC033091FD03601B710B820B930BB4
:1009B0000E94011720E030E04AEB52E40E946416E6
:1009C000881F8827881F1F910F91089567E674E09C
:1009D0008FE194E00E94471387EF93E00C9481131A
:1009E000CF93DF93CDB7DEB727970FB6F894DEBF6E
:1009F0000FBECDBF8DEC94E00E94EE0B18161906C9
:100A00000CF065C08DEC94E00E94170C2091D90386
:100A10003091DA038537910511F52130310541F424
:100A200080E00E947D0287E694E00E94000F1DC0D6
:100A30002230310509F04BC080916F0080628093B5
:100A40006F000E94B20481E08093020283E090E094
:100A50009093DA038093D9036FEA72E034C084364E
:100A60009105A9F52330310561F480916F008F7DE8
:100A700080936F0082E090E09093DA038093D90333
:100A800020C022303105D1F440E855E260E070E04A
:100A900087E694E00E94850E0E943F0280916F00DD
:100AA000806280936F001092110481E090E0909337
:100AB000DA038093D9036AEB72E005C02130310577
:100AC00031F464EA72E08DEC94E00E94CC098091EC
:100AD000D9039091DA03019709F05CC08FE194E0AB
:100AE0000E947113882309F44BC08FE194E00E94A7
:100AF0007413BC018FE194E00E948B10811107C038
:100B00006AE671E08DEC94E00E94BA0939C08091E8
:100B10002204825E8F83809123048E83809124043B
:100B20008D8380911F048B83809120048A83809120
:100B300021048983CE0101960E94801460930D04E4
:100B400070930E0480930F0490931004F894809196
:100B50001A0490911B04A0911C04B0911D04809371
:100B6000FA039093FB03A093FC03B093FD038091E1
:100B70008400909185009093F9038093F803789412
:100B800080911104882321F00E94C20481117AC14E
:100B9000109211048091D9039091DA03029741F4E5
:100BA00064E670E080E090E00E94F3071092110488
:100BB0008091D9039091DA03039709F0A0C1809145
:100BC0001104882321F165EC72E08DEC94E00E9421
:100BD0009D09409114045091150460911604709180
:100BE00017042AE030E08DEC94E00E94890A6DEE53
:100BF00072E08DEC94E00E949D0960911204709166
:100C000013044AE050E08DEC94E00E94BA0A10927E
:100C1000110487EF93E00E940414813039F468ECEA
:100C200072E08DEC94E00E94CC0969C121EF33E0C1
:100C300043EF53E065EF73E087EF93E00E94821388
:100C4000F89480911A0490911B04A0911C04B09117
:100C50001D048093030490930404A0930504B093AF
:100C60000604809184009091850090930204809303
:100C70000104789480910202882319F010920202F4
:100C8000E8C080910C048F9380910B048F93809126
:100C90000A048F93809109048F938DED92E09F93C6
:100CA0008F938EE793E09F938F930E94D01580914E
:100CB00008048F93809107048F9383EE92E09F93B3
:100CC0008F9388E793E09F938F930E94D01567EEF0
:100CD00072E089E893E00E94A7156EE773E089E867
:100CE00093E00E9491156DEE72E089E893E00E9416
:100CF000911568E773E089E893E00E9491156DEE25
:100D000072E089E893E00E94911569E873E08DEC48
:100D100094E00E949D096091F5037091F603882785
:100D200077FD8095982F0E9403170FB6F894DEBFC9
:100D30000FBECDBF20E030E0A9010E940F1887FD53
:100D400006C06AEE72E08DEC94E00E949D0960910D
:100D5000F5037091F603882777FD8095982F0E9400
:100D600003172FE632E143E85AE30E941318AB0160
:100D7000BC0124E030E08DEC94E00E94CD0B6DEEE0
:100D800072E08DEC94E00E949D096091F3037091F4
:100D9000F403882777FD8095982F0E94031720E0A1
:100DA00030E0A9010E940F1887FD06C06AEE72E0CC
:100DB0008DEC94E00E949D096091F3037091F4031F
:100DC000882777FD8095982F0E9403172FE632E140
:100DD00043E85AE30E941318AB01BC0124E030E061
:100DE0008DEC94E00E94CD0B6DEE72E08DEC94E002
:100DF0000E949D096091F1037091F203882777FDAD
:100E00008095982F0E94031720E030E0A9010E94EE
:100E10000F1887FD06C06AEE72E08DEC94E00E9428
:100E20009D096091F1037091F203882777FD809509
:100E3000982F0E9403172FE632E143E85AE30E94FD
:100E40001318AB01BC0124E030E08DEC94E00E946B
:100E5000CF0B8091030490910404A0910504B091FC
:100E600006048093090490930A04A0930B04B093A2
:100E70000C048091010490910204909308048093E3
:100E800007043DC06CEE72E08DEC94E00E949D0979
:100E90004091140450911504609116047091170448
:100EA0002AE030E08DEC94E00E94890A6DEE72E059
:100EB0008DEC94E00E949D096091120470911304DE
:100EC0004AE050E08DEC94E00E94B40A6DEE72E0CE
:100ED0008DEC94E00E949D0940910D0450910E0408
:100EE00060910F04709110044F5F5F4F6F4F7F4F01
:100EF0002AE030E08DEC94E00E94D00A49CE27969B
:100F00000FB6F894DEBF0FBECDBFDF91CF9108952D
:100F10001F920F920FB60F9211242F933F938F932E
:100F20009F93AF93BF9380915F0490916004A091D1
:100F30006104B091620430915E042FE4230F2D37D9
:100F400020F40196A11DB11D05C022ED230F0296CC
:100F5000A11DB11D20935E0480935F0490936004F3
:100F6000A0936104B093620480916304909164043F
:100F7000A0916504B09166040196A11DB11D8093F6
:100F8000630490936404A0936504B0936604BF91D6
:100F9000AF919F918F913F912F910F900FBE0F9026
:100FA0001F9018959FB7F894409163045091640482
:100FB000609165047091660486B5A89B06C08F3F5A
:100FC00021F04F5F5F4F6F4F7F4F9FBF2227342F1E
:100FD000452F562F280F311D411D511DA6E0B0E0B1
:100FE0000E94F21C0895CF92DF92EF92FF92CF936E
:100FF000DF936B017C010E94D207EB01C114D10485
:10100000E104F10479F00E94D2076C1B7D0B683E6D
:101010007340A0F381E0C81AD108E108F108C85173
:10102000DC4FECCFDF91CF91FF90EF90DF90CF902E
:101030000895789484B5826084BD84B5816084BD50
:1010400085B5826085BD85B5816085BDEEE6F0E041
:10105000808181608083E1E8F0E01082808182609D
:101060008083808181608083E0E8F0E0808181601E
:101070008083E1EBF0E0808184608083E0EBF0E04E
:10108000808181608083E1E9F0E0808182608083FB
:10109000808181608083E0E9F0E0808181608083ED
:1010A000E1EAF0E0808182608083808181608083DA
:1010B000E0EAF0E0808181608083E1E2F1E080811C
:1010C00082608083808181608083E0E2F1E08081C2
:1010D00081608083EAE7F0E08081846080838081A2
:1010E000826080838081816080838081806880834A
:1010F0001092C100089590E0FC013197E131F105B3
:1011000008F048C0EE58FF4F0C94DD1C8091800021
:101110008F7703C0809180008F7D80938000089539
:1011200084B58F7702C084B58F7D84BD089580918A
:10113000B0008F7703C08091B0008F7D8093B000A6
:101140000895809190008F7707C0809190008F7DE7
:1011500003C080919000877F8093900008958091D4
:10116000A0008F7707C08091A0008F7D03C0809181
:10117000A000877F8093A0000895809120018F7741
:1011800007C0809120018F7D03C080912001877F5F
:10119000809320010895CF93DF9390E0FC01E75EF8
:1011A000FC4F2491FC01E15AFC4F8491882349F1C2
:1011B00090E0880F991FFC01E154FC4FA591B49178
:1011C0008B559C4FFC01C591D4919FB7611108C00C
:1011D000F8948C91209582238C93888182230AC075
:1011E000623051F4F8948C91322F309583238C9394
:1011F0008881822B888304C0F8948C91822B8C93F5
:101200009FBFDF91CF9108950F931F93CF93DF93EB
:101210001F92CDB7DEB7282F30E0F901ED52FD4F18
:101220008491F901E75EFC4F1491F901E15AFC4FFA
:1012300004910023C9F0882321F069830E947B0870
:101240006981E02FF0E0EE0FFF1FEB55FC4FA591F9
:10125000B4919FB7F8948C91611103C010958123CC
:1012600001C0812B8C939FBF0F90DF91CF911F9175
:101270000F910895CF92DF92EF92FF920F931F93F9
:10128000CF93DF936C017A01EB01E60EF71E00E0CD
:1012900010E0CE15DF0561F06991D601ED91FC916A
:1012A0000190F081E02DC6011995080F191FF1CFAB
:1012B000C801DF91CF911F910F91FF90EF90DF90C8
:1012C000CF9008956115710581F0DB010D9000202C
:1012D000E9F7AD0141505109461B570BDC01ED9177
:1012E000FC910280F381E02D199480E090E0089554
:1012F000EF92FF920F931F93CF93DF938C01FB012B
:10130000C0E0D0E064917F018FEFE81AF80A66230D
:1013100061F0D801ED91FC910190F081E02DC801C0
:101320001995C80FD91FF701EDCFCE01DF91CF91ED
:101330001F910F91FF90EF9008950C946209DC01CA
:10134000ED91FC910190F081E02D19940F931F9382
:10135000CF93DF93EC016DE00E949F098C016AE05E
:10136000CE010E949F09800F911FDF91CF911F91A5
:101370000F9108950F931F93CF93DF93EC010E9479
:1013800078098C01CE010E94A609800F911FDF9180
:10139000CF911F910F9108950F931F93CF93DF93D8
:1013A000EC010E9462098C01CE010E94A609800F07
:1013B000911FDF91CF911F910F9108958F929F926E
:1013C000AF92BF92CF92DF92EF92FF920F931F9353
:1013D000CF93DF93CDB7DEB7A1970FB6F894DEBFFA
:1013E0000FBECDBF7C01C42EE52FCB01D22E19A29A
:1013F00021E02D1510F02AE0D22E8E010F5D1F4F37
:101400008D2C912CA12CB12C6C2D7E2FA50194013B
:101410000E94BB1C8C2DD29E8019112401501109F1
:101420008A3014F4805D01C0895CF8018083211545
:1014300031054105510521F0C22EE32FCA01E4CF49
:10144000B801C7010E946209A1960FB6F894DEBFE9
:101450000FBECDBFDF91CF911F910F91FF90EF9005
:10146000DF90CF90BF90AF909F908F900895CF92D4
:10147000DF92EF92FF920F931F93CF93DF93EC01D4
:101480006A017B012115310579F4E881F981019028
:10149000F081E02D642FDF91CF911F910F91FF908C
:1014A000EF90DF90CF9019942A303105E9F477FF5F
:1014B0001AC06DE20E949F098C0144275527BA018A
:1014C0004C195D096E097F092AE0CE010E94DE09F0
:1014D000800F911FDF91CF911F910F91FF90EF909F
:1014E000DF90CF9008952AE0B701A601CE01DF91E9
:1014F000CF911F910F91FF90EF90DF90CF900C94C0
:10150000DE099A01AB01662757FD6095762F0C9492
:10151000370A2115310541F4DC01ED91FC91019070
:10152000F081E02D642F19940C94DE099A01462F66
:1015300050E060E070E00C94890A0F931F93CF9302
:10154000DF93EC019A01462F50E060E070E00E94CA
:10155000890A8C01CE010E94A609800F911FDF919C
:10156000CF911F910F9108959A01AB0160E070E057
:101570000C94890A0F931F93CF93DF93EC019A0188
:10158000AB0160E070E00E94890A8C01CE010E94EC
:10159000A609800F911FDF91CF911F910F910895A0
:1015A0000F931F93CF93DF93EC010E94890A8C0164
:1015B000CE010E94A609800F911FDF91CF911F914C
:1015C0000F9108954F925F926F927F928F929F92A8
:1015D000AF92BF92CF92DF92EF92FF920F931F9341
:1015E000CF93DF93EC016A017B01B22E9A01AB012C
:1015F000C701B6010E947618882319F06FEE72E0D9
:1016000027C026013701E89477F82FEF3FEF4FE727
:101610005FE7C301B2010E94761881110DC02FEF60
:101620003FEF4FE75FE7C301B2010E94641618164F
:101630001CF463EF72E00CC02FEF3FEF4FE75FE465
:10164000C701B6010E940F181816ACF467EF72E0DC
:10165000CE01DF91CF911F910F91FF90EF90DF901E
:10166000CF90BF90AF909F908F907F906F905F9042
:101670004F900C9462092FEF3FEF4FE75FECC701EB
:10168000B6010E94641687FDE1CF20E030E0A90199
:10169000C701B6010E94641687FF0AC06DE2CE0141
:1016A0000E949F098C01F7FAF094F7F8F09402C0B9
:1016B00000E010E0A12C60E070E080E09FE3AB145C
:1016C00041F020E030E040E251E40E946816A3942B
:1016D000F6CF9B01AC01C701B6010E9400166B0159
:1016E0007C010E94D5162B013C010E9401179B0131
:1016F000AC01C701B6010E94FF156B017C012AE015
:10170000B301A201CE010E94DE09080F191FBB2000
:1017100039F062EA72E0CE010E946209080F191FD7
:101720007B2C772041F120E030E040E251E4C7011A
:10173000B6010E9413186B017C010E94D0164B0168
:10174000AA2497FCA094BA2C2AE030E0B501A401A9
:10175000CE010E94370A080F191FC501B4010E946B
:1017600003179B01AC01C701B6010E94FF156B0175
:101770007C017A94D6CFC801DF91CF911F910F9150
:10178000FF90EF90DF90CF90BF90AF909F908F90A1
:101790007F906F905F904F9008950C94E20A0F93A2
:1017A0001F93CF93DF93EC010E94E20A8C01CE01DC
:1017B0000E94A609800F911FDF91CF911F910F9179
:1017C00008950E9419080E94F602C8E6DDE00E9412
:1017D000F0042097E1F30E94680DF9CFFC01248505
:1017E0003585F901E05CFF4F80819181329620813F
:1017F0003181821B930B8F7399270895FC01848597
:101800009585FC01E05CFF4F40815181329620813B
:1018100031814217530741F00190F081E02DE80F2C
:10182000F91F808190E008958FEF9FEF0895FC01EC
:1018300084859585FC01E05CFF4F408151813296A3
:10184000208131814217530779F0A081B181A80F1F
:10185000B91F8C91208131812F5F3F4F2F73332728
:101860003183208390E008958FEF9FEF0895FC016E
:1018700081A1882329F0A489B5898C9186FFFBCFAB
:1018800011A20895CF93DF93FC0126853785D901F6
:10189000A05CBF4F8D919C91119701968F739927F2
:1018A000E901CE5BDF4F4881598184179507D9F351
:1018B0000D90BC91A02DA20FB31F6C93A685B78588
:1018C000A05CBF4F11969C938E93A689B7892C91EB
:1018D00081E090E0078C02C0880F991F0A94E2F71C
:1018E000282B2C9381E081A30488F589E02D808149
:1018F0008064808381E090E0DF91CF910895FB01C7
:10190000E05CFF4F208131812F5F3F4F2F733327E2
:10191000DB01AE5BBF4F4D915C912417350739F069
:10192000A081B181A60FB71F8C93318320830895C6
:1019300008951F920F920FB60F9211240BB60F92BB
:101940002F933F934F935F936F937F938F939F93C7
:10195000AF93BF93EF93FF938091C00082FD07C0C8
:101960008091C6006BEC76E00E947F0C02C08091F3
:10197000C600FF91EF91BF91AF919F918F917F91A1
:101980006F915F914F913F912F910F900BBE0F90F0
:101990000FBE0F901F90189508951F920F920FB6CB
:1019A0000F9211240BB60F922F933F934F935F9397
:1019B0006F937F938F939F93AF93BF93EF93FF9317
:1019C0008091C80082FD07C08091CE0063E476E07C
:1019D0000E947F0C02C08091CE00FF91EF91BF91D9
:1019E000AF919F918F917F916F915F914F913F91B7
:1019F0002F910F900BBE0F900FBE0F901F90189558
:101A000008951F920F920FB60F9211240BB60F92EA
:101A10002F933F934F935F936F937F938F939F93F6
:101A2000AF93BF93EF93FF938091D00082FD07C0E7
:101A30008091D6006BEB75E00E947F0C02C0809114
:101A4000D600FF91EF91BF91AF919F918F917F91C0
:101A50006F915F914F913F912F910F900BBE0F901F
:101A60000FBE0F901F90189508951F920F920FB6FA
:101A70000F9211240BB60F922F933F934F935F93C6
:101A80006F937F938F939F93AF93BF93EF93FF9346
:101A90008091300182FD07C08091360163E375E0DB
:101AA0000E947F0C02C080913601FF91EF91BF919F
:101AB000AF919F918F917F916F915F914F913F91E6
:101AC0002F910F900BBE0F900FBE0F901F90189587
:101AD0008DEC94E00E94EE0B892B11F00E94980C83
:101AE0008BEA94E00E94EE0B892B11F00E94CC0C43
:101AF00089E894E00E94EE0B892B11F00E94000D02
:101B000087E694E00E94EE0B892B11F00C94340DC3
:101B100008951F920F920FB60F9211240BB60F92D9
:101B20002F933F938F939F93EF93FF932091C7063B
:101B30003091C8068091C9069091CA0628173907C6
:101B400031F48091C1008F7D8093C10014C0E09179
:101B5000C906F091CA06E957F94F20818091C9065C
:101B60009091CA0601968F7399279093CA06809325
:101B7000C9062093C600FF91EF919F918F913F91ED
:101B80002F910F900BBE0F900FBE0F901F901895C6
:101B90001F920F920FB60F9211240BB60F922F9334
:101BA0003F938F939F93EF93FF9320913F06309144
:101BB000400680914106909142062817390731F47A
:101BC0008091C9008F7D8093C90014C0E0914106C7
:101BD000F0914206E150FA4F2081809141069091A8
:101BE000420601968F73992790934206809341068F
:101BF0002093CE00FF91EF919F918F913F912F9174
:101C00000F900BBE0F900FBE0F901F9018951F9254
:101C10000F920FB60F9211240BB60F922F933F9392
:101C20008F939F93EF93FF932091B7053091B80561
:101C30008091B9059091BA052817390731F4809140
:101C4000D1008F7D8093D10014C0E091B905F0914F
:101C5000BA05E958FA4F20818091B9059091BA05EB
:101C600001968F7399279093BA058093B9052093B5
:101C7000D600FF91EF919F918F913F912F910F90FF
:101C80000BBE0F900FBE0F901F9018951F920F92D2
:101C90000FB60F9211240BB60F922F933F938F9391
:101CA0009F93EF93FF9320912F0530913005809102
:101CB0003105909132052817390731F480913101AF
:101CC0008F7D8093310114C0E0913105F091320590
:101CD000E151FB4F208180913105909132050196B1
:101CE0008F739927909332058093310520933601A5
:101CF000FF91EF919F918F913F912F910F900BBE8C
:101D00000F900FBE0F901F901895CF92DF92EF9219
:101D1000FF92CF93DF93EC016A017B01EC89FD898F
:101D200081E090E008A002C0880F991F0A94E2F7B2
:101D3000808360EA75E286E290E0A70196010E9446
:101D4000BB1C2150310941095109569547953795DA
:101D50002795211580E1380798F0EC89FD891082DC
:101D600060ED72E183E190E0A70196010E94BB1C47
:101D700021503109410951095695479537952795C5
:101D8000E889F9893083EA89FB89208319A2EE89E1
:101D9000FF89408181E090E09C010C8C02C0220F01
:101DA000331F0A94E2F7422B4083EE89FF8940817A
:101DB0009C010D8C02C0220F331F0A94E2F7422BC4
:101DC0004083EE89FF8940819C010E8C02C0220F66
:101DD000331F0A94E2F7422B4083EE89FF8920816A
:101DE0000F8C02C0880F991F0A94E2F78095822316
:101DF0008083DF91CF91FF90EF90DF90CF90089597
:101E0000CF93DF93FC0186859785DC01A05CBF4FF3
:101E1000EC01CE5BDF4F4D915C91119728813981A8
:101E200042175307C1F7A689B7894C9181E090E02A
:101E30009C01048C02C0220F331F0A94E2F7209504
:101E400024232C93A689B7894C919C01058C02C050
:101E5000220F331F0A94E2F7209524232C93A6899E
:101E6000B7894C919C01068C02C0220F331F0A9443
:101E7000E2F7209524232C93A689B7892C91078C0F
:101E800002C0880F991F0A94E2F7809582238C93F1
:101E900084859585FC01EE5BFF4F2081318132976F
:101EA00031832083DF91CF910895CF931092D00496
:101EB0001092CF0488EE93E0A0E0B0E08093D104CC
:101EC0009093D204A093D304B093D4042FEF32E0C4
:101ED0003093CE042093CD044BEC56E05093DA04BB
:101EE0004093D90447E856E05093DC044093DB0468
:101EF00045EC50E05093DE044093DD0444EC50E0A8
:101F00005093E0044093DF0440EC50E05093E2042F
:101F10004093E10441EC50E05093E4044093E30427
:101F200042EC50E05093E6044093E50446EC50E068
:101F30005093E8044093E704C4E0C093E904F3E05D
:101F4000F093EA04E7E0E093EB0475E07093EC04AF
:101F500061E06093ED041092AE041092AD048093A2
:101F6000AF049093B004A093B104B093B204309343
:101F7000AC042093AB0443E456E05093B804409380
:101F8000B7044FEF55E05093BA044093B9044DECB9
:101F900050E05093BC044093BB044CEC50E0509391
:101FA000BE044093BD0448EC50E05093C0044093FD
:101FB000BF0449EC50E05093C2044093C1044AEC82
:101FC00050E05093C4044093C3044EEC50E050934F
:101FD000C6044093C504C093C704F093C804E093BB
:101FE000C9047093CA046093CB0410928C041092BD
:101FF0008B0480938D0490938E04A0938F04B093F0
:10200000900430938A04209389044BEB55E050935D
:1020100096044093950447E755E050939804409305
:10202000970445ED50E050939A044093990444ED91
:1020300050E050939C0440939B0440ED50E050933B
:102040009E0440939D0441ED50E05093A0044093C2
:102050009F0442ED50E05093A2044093A10446ED4A
:1020600050E05093A4044093A304C093A504F093BC
:10207000A604E093A7047093A8046093A9041092A7
:102080006A041092690480936B0490936C04A0938B
:102090006D04B0936E04309368042093670483E367
:1020A00095E090937404809373048FEE94E0909382
:1020B00076048093750485E391E09093780480938F
:1020C000770484E391E090937A048093790480E329
:1020D00091E090937C0480937B0481E391E0909362
:1020E0007E0480937D0482E391E09093800480934A
:1020F0007F0486E391E09093820480938104C093EF
:102100008304F0938404E0938504709386046093C1
:102110008704CF9108954F925F926F927F928F9232
:102120009F92AF92BF92CF92DF92EF92FF920F9366
:102130001F93CF93DF93EC018B01FB0101900020F3
:10214000E9F7E61BF70B3597DB01AE0FBF1F8C914C
:102150008A3241F421E0822F90E08E179F0710F41D
:102160002F5FF9CF6BE073E0C8010E94AE15892B99
:1021700009F4DDC06CE270E0C8010E949C158C017E
:102180000F5F1F4FC8010E9464156B017C0120E0A6
:1021900030E0A9010E940F1820E030E040E05FE34A
:1021A00087FD05C0C701B6010E94001604C0C70123
:1021B000B6010E94FF150E94D0160E9403176B0102
:1021C0007C010E94D5162B013C0120E137E240E062
:1021D00050E00E94BB1C288344E6842E912CA12C45
:1021E000B12CA50194010E94BB1C2983C301B2013B
:1021F000A50194010E94BB1C6A8320E030E040E806
:102200005FE3C701B6010E94451720E030E04AE7CE
:1022100054E40E9413180E94D5167F836E836CE2EB
:1022200070E0C8010E949C158C010F5F1F4FC80110
:102230000E946415688779878A879B876CE270E0C3
:10224000C8010E949C15FC0121812E3411F0233518
:1022500011F428A705C02C3211F080E058C118A64F
:102260006CE270E001960E949C158C010F5F1F4F7D
:10227000C8010E9464156C877D878E879F876CE2FA
:1022800070E0C8010E949C15FC012181273511F0E6
:10229000253411F429A703C02C32F9F619A66CE2F3
:1022A00070E001960E949C158C010F5F1F4FC801C2
:1022B0000E9468158CA76CE270E0C8010E949C1512
:1022C0008C010F5F1F4FC8010E9468158DA76CE23B
:1022D00070E0C8010E949C158C010F5F1F4FC80160
:1022E0000E9464156CA37DA38EA39FA36CE270E093
:1022F000C8010E949C158C010F5F1F4FC8010E94EE
:1023000064156C8B7D8B8E8B9F8B6CE270E0C801AB
:102310000E949C156CE270E001960E949C1501964B
:102320000E946415688B798B8A8B9B8BEFC062E16E
:1023300073E0C8010E94AE15892B09F48ECF6CE2C0
:1023400070E0C8010E949C158C010F5F1F4FC801EF
:102350000E9464156B017C0120E030E0A9010E941D
:102360000F1820E030E040E05FE387FD05C0C701C3
:10237000B6010E94001604C0C701B6010E94FF15F5
:102380000E94D0160E9403176B017C010E94D51693
:102390002B013C0120E137E240E050E00E94BB1CF1
:1023A000288334E6832E912CA12CB12CA501940115
:1023B0000E94BB1C2983C301B201A50194010E94A4
:1023C000BB1C6A8320E030E040E85FE3C701B60150
:1023D0000E94451720E030E04AE754E40E941318B9
:1023E0000E94D5167F836E836CE270E0C8010E9464
:1023F0009C15FC012181213419F421E02BA704C094
:10240000263509F02ACF1BA66CE270E001960E94E7
:102410009C158C010F5F1F4FC8010E9464156887CF
:1024200079878A879B876CE270E0C8010E949C15BF
:10243000FC0121812E3411F0233511F428A704C0AA
:102440002C3209F00ACF18A66CE270E001960E94C7
:102450009C158C010F5F1F4FC8010E9464156C878B
:102460007D878E879F876CE270E0C8010E949C1573
:10247000FC012181273511F0253411F429A704C06E
:102480002C3209F0EACE19A66CE270E001960E94A7
:102490009C158C010F5F1F4FC8010E946415688F47
:1024A000798F8A8F9B8F6CE270E0C8010E949C1527
:1024B0008C010F5F1F4FC8010E9464156C8F7D8FC8
:1024C0008E8F9F8F6CE270E0C8010E949C15019670
:1024D0000E9464150E94D5164B015C0120E137E291
:1024E00040E050E00E94BB1C2D8324E6C22ED12C7C
:1024F000E12CF12CA70196010E94BB1C2C83C50185
:10250000B401A70196010E94BB1C6B8381E0DF919F
:10251000CF911F910F91FF90EF90DF90CF90BF90E0
:10252000AF909F908F907F906F905F904F900895A5
:10253000CF93DF93EC018AAD882311F080E05FC078
:102540008DAD9EADDC01ED91FC910480F581E02D17
:102550001995892B99F38DAD9EADDC01ED91FC9120
:102560000680F781E02D199520911207309113070D
:10257000843249F490911407F901E90FF11D10829A
:102580001092140728C08A3031F590911407F90190
:10259000E90FF11D10822091120730911307B7E067
:1025A0002D383B0739F445E157E05093130740932A
:1025B000120708C02DE837E0309313072093120765
:1025C00025E137E03093110720931007109214078C
:1025D00091E090930F07E0911207F091130790910B
:1025E000140721E0290F20931407E90FF11D8083C0
:1025F00090911407983718F097E790931407DF919C
:10260000CF910895FC0114AE13AE16AE15AE109224
:102610000F0712AE109214078DE897E090931307FE
:102620008093120785E197E090931107809310073C
:1026300015A614A6158214821382128211821082AA
:1026400012A611A610A613A61782168214A215A20E
:1026500016A217A210A211A212A213A2148E158EF6
:10266000168E178E108E118E128E138E148A158A66
:10267000168A178A108A118A128A138A1486158676
:1026800016861786108611861286138608950F9374
:102690001F93CF93DF93EC018B010E9402131EAFB7
:1026A0000DAFDF91CF911F910F910895FC0183AD84
:1026B00094ADAB0160E070E0009711F485AD96AD8C
:1026C0000E94850E6AE070E080E090E00C94F307D1
:1026D000FC0183AD94AD009711F485AD96AD0C94DB
:1026E000CC0980910F07089510920F078091100771
:1026F0009091110708958EBD0DB407FEFDCF8EB5E4
:1027000008950895AF92BF92CF92DF92EF92FF9219
:102710000F931F93CF93DF938B017A01E90183E03D
:10272000C82E82E0D82E60E0D6018C910E94040968
:102730008BE00E947B138EE00E947B1380E00E945E
:102740007B13A82EB12CF801B182A08280E00E94F8
:102750007B13E82FF0E0FE2FEE27EA0DFB1DD801DA
:10276000ED93FC9380E00E947B13082F10E0F701AB
:102770001183008380E00E947B13682F70E0762F26
:102780006627600F711FD7016D937C9380E00E94D4
:102790007B13082F10E01983088380E00E947B13CD
:1027A000482F50E0542F4427400F511F598348832E
:1027B00061E0F6018081DF91CF911F910F91FF9031
:1027C000EF90DF90CF90BF90AF900C9404091F93CF
:1027D000CF93DF93162FC3E0D2E060E088810E94A0
:1027E00004098BE00E947B13812F0E947B1380E001
:1027F0000E947B13182F61E088810E940409812FB9
:10280000DF91CF911F9108950F931F93CF93DF9383
:102810008C01C7E3D2E86BE0C8010E94E71380FD9A
:1028200005C02197209721F00000F5CF80E001C07E
:1028300081E0DF91CF911F910F910895EF92FF9268
:102840001F93CF93DF931F92CDB7DEB7162FB3E060
:10285000EB2EB2E0FB2E60E0F701808149830E94FD
:1028600004098AE00E947B13812F0E947B13498117
:10287000842F0E947B1361E0F70180810F90DF912C
:10288000CF911F91FF90EF900C940409CF93DF93A9
:10289000EC01862F609303027093040261E00E94B2
:1028A000CB080E943B1580E00E94511582E00E94F7
:1028B000561568EE73E080E090E00E94F30742E571
:1028C0006FE1CE010E941E146AE070E080E090E0AB
:1028D000DF91CF910C94F307CF93DF93EC016DE27E
:1028E0000E94E713482F42606DE2CE010E941E1441
:1028F0006AE070E080E090E0DF91CF910C94F30704
:102900006F927F928F929F92AF92BF92CF92DF92FF
:10291000EF92FF920F931F93CF93DF93FC01C6803A
:10292000AC2DB0E020E833E341EE51E00E94F21C10
:102930004B015C0122EB37E06D01C4E6D0E000E919
:1029400011E0C901825B97408C159D05DCF4C9013B
:1029500083709927892B99F4C901BE010E94A71C95
:10296000892B31F4C901B8010E94A71C892B39F4C5
:1029700080E8880E81E5981E81E0A81EB11C2F5FBB
:102980003F4FDFCF6580712C8EE4C81A88EFD80ADC
:10299000C60164E670E00E94A71C8C01C60160E9D4
:1029A00071E00E94A71C7C01C1E0D0E083E0C82256
:1029B000DD24C615D7052CF5C230D10589F4C11424
:1029C000D10471F40115110519F4E114F10441F475
:1029D00080E8880E8BE3981E86E2A81EB11C0FC00B
:1029E000DE01A559BC4FAC91B0E020E831E541E0F3
:1029F00050E00E94F21C860E971EA81EB91E21965A
:102A0000D8CF4181228130E0A0E1BEE00E94E31CEA
:102A10006B017C01242F30E0ACE3B0E00E94E31CAA
:102A2000C60ED71EE81EF91E8081C80ED11CE11CFF
:102A3000F11CA481B0E0119720E831E541E050E0BD
:102A40000E94FD1CC60ED71EE81EF91EC80CD91C1C
:102A5000EA1CFB1CC701B601DF91CF911F910F91BA
:102A6000FF90EF90DF90CF90BF90AF909F908F90AE
:102A70007F906F90089561E085E30E94040961E012
:102A800085E30E94CB088CB580618CBD8CB58064D9
:102A90008CBD61E084E30E94CB0861E083E30C9489
:102AA000CB089CB5937F982B9CBD08952CB5982F8F
:102AB00093702C7F922B9CBD9DB582FB882780F95B
:102AC0009E7F982B9DBD0895662777270C94751AD5
:102AD000FC0188279927E89421912032E9F32930D5
:102AE00010F02E30C8F32B3241F02D3239F46894B7
:102AF00004C00E94C815820F911D219120532A30D5
:102B0000C0F31EF4909581959F4F0895F8940C940E
:102B10001D1D91115BC6803219F089508550D0F788
:102B20000895FB01DC010D900020E9F71197019059
:102B30000D920020E1F70895FC018191861721F0A4
:102B40008823D9F7992708953197CF010895FB017C
:102B5000DC0101900D920020E1F70895FB015191F5
:102B60005523A9F0BF01DC014D9145174111E1F753
:102B700059F4CD010190002049F04D9140154111CB
:102B8000C9F3FB014111EFCF81E090E00197089577
:102B90007AE0979F902D879F802D910D11240895A5
:102BA0000F931F93CF93DF93CDB7DEB72E970FB65A
:102BB000F894DEBF0FBECDBF0E891F8986E08C83DF
:102BC0001A8309838FEF9FE79E838D83AE01465E54
:102BD0005F4F688D798DCE0101960E947A18EF8142
:102BE000F885E00FF11F10822E960FB6F894DEBF25
:102BF0000FBECDBFDF91CF911F910F910895505817
:102C0000BB27AA270ED0D1C1C2D130F0C7D120F046
:102C100031F49F3F11F41EF4B7C10EF4E095E7FBC9
:102C20009FC1E92FD3D180F3BA17620773078407D6
:102C3000950718F071F49EF5EBC10EF4E0950B2E9C
:102C4000BA2FA02D0B01B90190010C01CA01A001FE
:102C50001124FF27591B99F0593F50F4503E68F159
:102C60001A16F040A22F232F342F4427585FF3CF9A
:102C7000469537952795A795F0405395C9F77EF46B
:102C80001F16BA0B620B730B840BBAF09150A1F0B4
:102C9000FF0FBB1F661F771F881FC2F70EC0BA0F3A
:102CA000621F731F841F48F4879577956795B795C2
:102CB000F7959E3F08F0B3CF9395880F08F09927BA
:102CC000EE0F97958795089527D108F481E0089530
:102CD0000CD06BC163D140F05AD130F021F45F3F8A
:102CE00019F03EC1511195C14FC170D198F399238C
:102CF000C9F35523B1F3951B550BBB27AA276217C0
:102D00007307840738F09F5F5F4F220F331F441F04
:102D1000AA1FA9F333D00E2E3AF0E0E830D091503C
:102D20005040E695001CCAF729D0FE2F27D0660F29
:102D3000771F881FBB1F261737074807AB07B0E868
:102D400009F0BB0B802DBF01FF2793585F4F2AF07E
:102D50009E3F510568F004C15CC15F3FECF3983EB3
:102D6000DCF3869577956795B795F7959F5FC9F7DB
:102D7000880F911D9695879597F90895E1E0660F64
:102D8000771F881FBB1F621773078407BA0720F0DD
:102D9000621B730B840BBA0BEE1F88F7E095089546
:102DA00004D06894B11135C1089518D188F09F57A7
:102DB00090F0B92F9927B751A0F0D1F0660F771F87
:102DC000881F991F1AF0BA95C9F712C0B13081F067
:102DD0001FD1B1E008951CC1672F782F8827B85FF5
:102DE00039F0B93FCCF3869577956795B395D9F7C8
:102DF0003EF490958095709561957F4F8F4F9F4FD2
:102E00000895E89409C097FB3EF4909580957095DD
:102E100061957F4F8F4F9F4F9923A9F0F92F96E926
:102E2000BB279395F695879577956795B795F1119B
:102E3000F8CFFAF4BB0F11F460FF1BC06F5F7F4F38
:102E40008F4F9F4F16C0882311F096E911C077234A
:102E500021F09EE8872F762F05C0662371F096E853
:102E6000862F70E060E02AF09A95660F771F881F22
:102E7000DAF7880F9695879597F9089588D018F016
:102E800011F08CD038F480C0C4C0E92F9FD0B0F3CB
:102E90005523C9F3E7FB6217730784079507A8F169
:102EA00099F3E92FFF2788232AF03197660F771FC0
:102EB000881FDAF7952F5527442332F09150504060
:102EC000220F331F441FD2F7BB27E91BF50B621BF0
:102ED000730B840BB109C1F222F4620F731F841FBC
:102EE000B11D31972AF0660F771F881FBB1FEFCFE8
:102EF000915050405AF041F0882332F0660F771F0E
:102F0000881F91505040C1F7939530C086957795B2
:102F100067959F5FD9F7F8CF990F0008550FAA0B57
:102F2000E0E8FEEF16161706E807F907C0F01216DC
:102F30001306E407F50798F0621B730B840B950BDF
:102F400039F40A2661F0232B242B252B21F4089534
:102F50000A2609F4A140A6958FEF811D811D0895D1
:102F600097F99F6780E870E060E008959F3F31F037
:102F7000915020F4879577956795B795880F911DA7
:102F80009695879597F908959FEF80EC0895002412
:102F90000A941616170618060906089500240A94BE
:102FA00012161306140605060895092E0394000C44
:102FB00011F4882352F0BB0F40F4BF2B11F460FFD3
:102FC00004C06F5F7F4F8F4F9F4F089557FD9058FC
:102FD000440F551F59F05F3F71F04795880F97FBDD
:102FE000991F61F09F3F79F0879508951216130697
:102FF0001406551FF2CF4695F1DF08C016161706C6
:103000001806991FF1CF86957105610508940895FA
:10301000E894BB2766277727CB0197F908957CDFD3
:1030200008F48FEF08950BD0C0CFB1DF28F0B6DFE2
:1030300018F0952309F094CFA7CF1124EACFC6DF6B
:10304000A0F3959FD1F3950F50E0551F629FF001BB
:10305000729FBB27F00DB11D639FAA27F00DB11D14
:10306000AA1F649F6627B00DA11D661F829F22279D
:10307000B00DA11D621F739FB00DA11D621F839F24
:10308000A00D611D221F749F3327A00D611D231FFA
:10309000849F600D211D822F762F6A2F11249F5748
:1030A00050408AF0E1F088234AF0EE0FFF1FBB1F6B
:1030B000661F771F881F91505040A9F79E3F51050A
:1030C00070F04ECFA6CF5F3FECF3983EDCF38695D1
:1030D00077956795B795F795E7959F5FC1F7FE2BB5
:1030E000880F911D9695879597F9089515DF880BA0
:1030F000990B08952F923F924F925F926F927F9219
:103100008F929F92AF92BF92CF92DF92EF92FF92F7
:103110000F931F93CF93DF93CDB7DEB72C970FB6E6
:10312000F894DEBF0FBECDBF7C016B018A01FC01AC
:1031300017821682838181FFBDC1CE0101964C01A9
:10314000F7019381F60193FD859193FF81916F01C2
:10315000882309F4ABC1853239F493FD859193FF3F
:1031600081916F01853229F4B70190E00E94171C0C
:10317000E7CF512C312C20E02032A0F48B3269F0C3
:1031800030F4803259F0833269F420612CC08D32E2
:1031900039F0803339F4216026C02260246023C0D6
:1031A000286021C027FD27C030ED380F3A3078F471
:1031B00026FF06C0FAE05F9E300D1124532E13C087
:1031C0008AE0389E300D1124332E20620CC08E32DE
:1031D00021F426FD6BC1206406C08C3611F42068F2
:1031E00002C0883641F4F60193FD859193FF8191E9
:1031F0006F018111C1CF982F9F7D9554933028F492
:103200000C5F1F4FFFE3F9830DC0833631F0833726
:1032100071F0833509F05BC022C0F8018081898399
:103220000E5F1F4F44244394512C540115C03801A4
:10323000F2E06F0E711CF801A080B18026FF03C080
:10324000652D70E002C06FEF7FEFC5012C870E94F3
:103250000C1C2C0183012C852F77222E17C03801DE
:10326000F2E06F0E711CF801A080B18026FF03C050
:10327000652D70E002C06FEF7FEFC5012C870E94C3
:10328000011C2C012C852068222E830123FC1BC0ED
:10329000832D90E048165906B0F4B70180E290E023
:1032A0000E94171C3A94F4CFF50127FC859127FE64
:1032B00081915F01B70190E00E94171C31103A9490
:1032C000F1E04F1A51084114510471F7E5C08436FA
:1032D00011F0893639F5F80127FF07C06081718147
:1032E000828193810C5F1F4F08C0608171818827A4
:1032F00077FD8095982F0E5F1F4F2F76B22E97FF88
:1033000009C090958095709561957F4F8F4F9F4F25
:103310002068B22E2AE030E0A4010E94491CA82EA9
:10332000A81844C0853729F42F7EB22E2AE030E059
:1033300025C0F22FF97FBF2E8F36C1F018F48835E3
:1033400079F0B4C0803719F0883721F0AFC02F2F43
:103350002061B22EB4FE0DC08B2D8460B82E09C042
:1033600024FF0AC09F2F9660B92E06C028E030E0E7
:1033700005C020E130E002C020E132E0F801B7FEF4
:1033800007C060817181828193810C5F1F4F06C0ED
:103390006081718180E090E00E5F1F4FA4010E9468
:1033A000491CA82EA818FB2DFF77BF2EB6FE0BC018
:1033B0002B2D2E7FA51450F4B4FE0AC0B2FC08C019
:1033C0002B2D2E7E05C07A2C2B2D03C07A2C01C00C
:1033D000752C24FF0DC0FE01EA0DF11D80818033A4
:1033E00011F4297E09C022FF06C07394739404C0AF
:1033F000822F867809F0739423FD13C020FF06C046
:103400005A2C731418F4530C5718732C731468F453
:10341000B70180E290E02C870E94171C73942C85E2
:10342000F5CF731410F4371801C0312C24FF12C0EB
:10343000B70180E390E02C870E94171C2C8522FFA7
:1034400017C021FF03C088E590E002C088E790E044
:10345000B7010CC0822F867859F021FD02C080E2AE
:1034600001C08BE227FD8DE2B70190E00E94171C9E
:10347000A51438F4B70180E390E00E94171C5A9419
:10348000F7CFAA94F401EA0DF11D8081B70190E015
:103490000E94171CA110F5CF332009F451CEB701BB
:1034A00080E290E00E94171C3A94F6CFF7018681E3
:1034B000978102C08FEF9FEF2C960FB6F894DEBF76
:1034C0000FBECDBFDF91CF911F910F91FF90EF9075
:1034D000DF90CF90BF90AF909F908F907F906F9034
:1034E0005F904F903F902F9008958F929F92AF9250
:1034F000BF92CF92DF92EF92FF920F931F93CF93E1
:10350000DF938B016115710521F0DB018C9311961E
:103510009C93EC015E01BFEFAB1ABB0A7501C8803A
:103520008C2D90E00E948915892B11F0E501F2CFD6
:10353000EDE2CE1208C07E01F2E0EF0EF11CC98070
:10354000DD24D39409C02BE2C21205C07E0142E003
:10355000E40EF11CC980D12CE701219743E050E033
:1035600061EE73E0CE010E94E91B892BC1F4239622
:1035700045E050E06CED73E0CE010E94E91B892B21
:1035800009F425960115110519F0D801CD93DC93A6
:10359000D11006C160E070E080E89FE70AC143E017
:1035A00050E069ED73E0CE010E94E91B892B59F4CC
:1035B0000115110509F4F9C0B2E0EB0EF11CF80198
:1035C000F182E082F2C0F70160E070E0CB01C0E080
:1035D000D0E07F01A0EDAA2EAC0C29E02A1530F135
:1035E0004D2D4260B42E2D2D2870D2FE04C0211125
:1035F00025C0219623C021112197A5E0B0E09B01B1
:10360000AC010E94F21C660F771F881F991F6A0D7C
:10361000711D811D911D6839A9E97A078A07A9E101
:103620009A0760F0BD2DB660BB2E08C02EEFA21227
:103630000AC0D3FC50C04D2D4860B42E3196D7013E
:10364000CC90DB2CC6CF2C2D2F7D253409F043C028
:10365000A081AD3241F4BD2DB061DB2E7F0122E0AF
:10366000E20EF11C0CC07F01AB3231F04FEFE41AD7
:10367000F40A21E030E006C0A2E0EA0EF11CA181CC
:1036800022E030E0A053AA3018F0E21AF30A23C077
:10369000F70120E030E02038BCE03B075CF4A901F2
:1036A000440F551F440F551F240F351F220F331F82
:1036B0002A0F311DAF014F5F5F4F7A01A081A053E8
:1036C000AA3010F4FA01E7CFD4FE03C0319521955A
:1036D0003109C20FD31FD1FE09C00115110531F008
:1036E000E1E0EE1AF108D801ED92FC920E94011778
:1036F0002D2D2370233019F04B015C0106C04B01C6
:103700005C01B7FAB094B7F8B09420E030E0A901BA
:10371000C501B4010E946416882309F43EC0D7FF96
:1037200006C0D195C195D10908EF13E002C000E1B0
:1037300014E06801B8E1CB1AD10890E2E92EF12C2F
:10374000CE15DF0574F0F80125913591459154911E
:10375000C501B4010E9413184B015C01CE19DF09A9
:10376000EFCF04501109F594E7940C151D0541F7AE
:103770008A2D880F8B2D881F8F3F49F020E030E085
:10378000A901C501B4010E946416811106C082E23C
:1037900090E09093060880930508C501B40109C024
:1037A00060E070E080E89FEF04C060E070E080ECD3
:1037B0009FE7DF91CF911F910F91FF90EF90DF90E6
:1037C000CF90BF90AF909F908F90089599278827B2
:1037D0000895FB01DC014150504088F08D91813407
:1037E0001CF08B350CF4805E659161341CF06B35F8
:1037F0000CF4605E861B611171F3990B0895881BB0
:10380000FCCFFC010590615070400110D8F7809505
:1038100090958E0F9F1F0895FC016150704001909C
:103820000110D8F7809590958E0F9F1F08950F93E4
:103830001F93CF93DF93182F092FEB018B8181FD0D
:1038400003C08FEF9FEF20C082FF10C04E815F81C9
:103850002C813D81421753077CF4E881F9819F0157
:103860002F5F3F4F39832883108306C0E885F98591
:10387000812F1995892B29F72E813F812F5F3F4F8B
:103880003F832E83812F902FDF91CF911F910F9136
:103890000895FA01AA27283051F1203181F1E894E6
:1038A0006F936E7F6E5F7F4F8F4F9F4FAF4FB1E033
:1038B0003ED0B4E03CD0670F781F891F9A1FA11D2E
:1038C000680F791F8A1F911DA11D6A0F711D811D2F
:1038D000911DA11D20D009F468943F912AE0269FF4
:1038E00011243019305D3193DEF6CF010895462F53
:1038F0004770405D4193B3E00FD0C9F7F6CF462F34
:103900004F70405D4A3318F0495D31FD405241939C
:1039100002D0A9F7EACFB4E0A69597958795779559
:103920006795BA95C9F700976105710508959B01E0
:10393000AC010A2E06945795479537952795BA9569
:10394000C9F7620F731F841F951FA01D089597FB71
:10395000072E16F4009407D077FD09D00E94091DA8
:1039600007FC05D03EF4909581959F4F0895709582
:1039700061957F4F0895A1E21A2EAA1BBB1BFD0182
:103980000DC0AA1FBB1FEE1FFF1FA217B307E4073E
:10399000F50720F0A21BB30BE40BF50B661F771F96
:1039A000881F991F1A9469F7609570958095909576
:1039B0009B01AC01BD01CF010895EE0FFF1F0590E3
:1039C000F491E02D1994A29FB001B39FC001A39F71
:1039D000700D811D1124911DB29F700D811D112448
:1039E000911D08950E94E31CA59F900DB49F900D1A
:1039F000A49F800D911D11240895B7FF0C94F21C13
:103A00000E94F21C821B930B08950790F691E02D03
:103A10001994AA1BBB1B51E107C0AA1FBB1FA61705
:103A2000B70710F0A61BB70B881F991F5A95A9F767
:0E3A300080959095BC01CD010895F894FFCFCC
:103A3E000200010A0024504D544B3331342C302CEB
:103A4E00312C302C312C302C302C302C302C302C86
:103A5E00302C302C302C302C302C302C302C302C78
:103A6E00302C302A32380024504D544B3232302C08
:103A7E00313030302A314600302C2D20536B697096
:103A8E0070696E67205050533A2028002F0029008D
:103A9E00302C2D20646F6E652100302C50617273B6
:103AAE00696E67204E4D45412073656E74656E6379
:103ABE0065732E2E2E00302C4144584C3336323A3C
:103ACE00205374617274204D6561737572696E67EF
:103ADE002E2E2E00302C7374617475733D320030AF
:103AEE002C7374617475733D3300302C7374617470
:103AFE0075733D3100332C00302C446174612052BB
:103B0E00656164792054696D656F75740025313077
:103B1E006C750025357500322C002000312C006E9E
:103B2E00616E00696E66006F7666000000000042EE
:103B3E000C3A09EE0B170CFE0B370C244750474777
:103B4E004100244750524D430024504D544B3138C0
:103B5E00352C302A32320024504D544B3030312C1B
:103B6E003138352C332A33430024504D544B3138E1
:103B7E00332A33380024504D544B4C4F47002450B9
:103B8E004D544B3136312C302A32380024504D549E
:103B9E004B3031302C3030322A3244001F1C1F1E65
:083BAE001F1E1F1F1E1F1E1F1A
:00000001FF
