:100000000C9437010C9468010C9468010C946801FD
:100010000C9468010C9468010C9468010C946801BC
:100020000C9468010C9468010C9468010C946801AC
:100030000C9468010C9468010C9468010C9468019C
:100040000C9468010C9468010C9468010C9468018C
:100050000C9468010C9468010C9468010C9497014D
:100060000C9468010C946C040C945C050C9468016D
:100070000C9468010C9468010C9468010C9468015C
:100080000C9468010C9468010C9468010C9468014C
:100090000C94A0040C949B050C9468010C946801CA
:1000A0000C9468010C9468010C9468010C9468012C
:1000B0000C9468010C9468010C9468010C9468011C
:1000C0000C9468010C9468010C9468010C94D4049D
:1000D0000C94DA050C9468010C9408050C9419062C
:1000E0000C9468019F02A20295029902D902A6020D
:1000F000AA02B002B402B802BE02C202C602D9020B
:10010000CC02D002D4020C94CC020C94D0020C94F9
:10011000D9020C9415040C94B8020C94D4020C94DB
:100120000A040C94B4020C94B0020C9499020C943E
:10013000C1030C9449030C94D3060C94A6020C94AE
:100140009F020C943B050C94A2020C94C2020C94E6
:10015000AA020C94BE020C94C6020C94D1030C9417
:10016000EA030C9495020000090A02080B0C0D0723
:100170000603040100000000000000000000000071
:10018000000000000000000000000000000000006F
:10019000000011100F00000000000000000000002F
:1001A000000000000000000000000000010210201C
:1001B000200808102040102040800201020108049D
:1001C0000201010204081020408080402010080431
:1001D000020180040201804020100804020108048A
:1001E00002010102040810204080010204081020CE
:1001F00040800505050507050808080802020202F7
:100200000A0A0808040404040101010101010101B2
:100210000303030303030303040707070C0C0C0C7D
:100220000C0C0C0C02020202060606060606060666
:100230000B0B0B0B0B0B0B0B0000220025002800F7
:100240002B002E00310034000201000005010801DE
:100250000B0100002100240027002A002D0030009F
:10026000330001010000040107010A01D306112433
:100270001FBECFEFD1E2DEBFCDBF00E00CBF12E06A
:10028000A0E0B2E0E8EAF0E100E00BBF02C00790B6
:100290000D92A032B107D9F724E0A0E2B2E001C08C
:1002A0001D92A13DB207E1F712E0CEE6D2E000E0F8
:1002B00006C022970109FE010BBF0E943F08CC3601
:1002C000D10780E00807A9F70E94B4030C9409083D
:1002D0000C94000061E0809100020E94DA0240E08C
:1002E00052EC61E070E08FE892E00C945806CF93F6
:1002F000DF93C0E0D2E061E088810E94130364E6EE
:1003000070E080E090E00E94020260E088810E943C
:10031000130364E670E080E090E00E94020262E075
:1003200072E08FE892E0DF91CF910C94A2031F92CC
:100330000F920FB60F9211242F933F938F939F9399
:10034000AF93BF938091210290912202A09123024A
:10035000B0912402309120022FE4230F2D3720F496
:100360000196A11DB11D05C022ED230F0296A11D0E
:10037000B11D209320028093210290932202A0932A
:100380002302B09324028091250290912602A0912D
:100390002702B09128020196A11DB11D809325026C
:1003A00090932602A0932702B0932802BF91AF91A9
:1003B0009F918F913F912F910F900FBE0F901F90A3
:1003C00018959FB7F89440912502509126026091AC
:1003D00027027091280286B5A89B06C08F3F21F0A6
:1003E0004F5F5F4F6F4F7F4F9FBF2227342F452FA7
:1003F000562F280F311D411D511DA6E0B0E00E946F
:1004000034080895CF92DF92EF92FF92CF93DF935B
:100410006B017C010E94E101EB01C114D104E104F4
:10042000F10479F00E94E1016C1B7D0B683E734082
:10043000A0F381E0C81AD108E108F108C851DC4FE7
:10044000ECCFDF91CF91FF90EF90DF90CF900895A8
:10045000789484B5826084BD84B5816084BD85B59F
:10046000826085BD85B5816085BDEEE6F0E0808166
:1004700081608083E1E8F0E0108280818260808387
:10048000808181608083E0E8F0E08081816080830A
:10049000E1EBF0E0808184608083E0EBF0E080813C
:1004A00081608083E1E9F0E08081826080838081E7
:1004B00081608083E0E9F0E0808181608083E1EA0F
:1004C000F0E0808182608083808181608083E0EAC7
:1004D000F0E0808181608083E1E2F1E080818260F0
:1004E0008083808181608083E0E2F1E080818160AF
:1004F0008083EAE7F0E0808184608083808182608D
:100500008083808181608083808180688083109275
:10051000C100089590E0FC013197E131F10508F048
:1005200048C0EE58FF4F0C942E08809180008F77C2
:1005300003C0809180008F7D80938000089584B5F2
:100540008F7702C084B58F7D84BD08958091B000FF
:100550008F7703C08091B0008F7D8093B0000895A5
:10056000809190008F7707C0809190008F7D03C0AD
:1005700080919000877F8093900008958091A000E3
:100580008F7707C08091A0008F7D03C08091A0006D
:10059000877F8093A0000895809120018F7707C006
:1005A000809120018F7D03C080912001877F8093FF
:1005B00020010895CF93DF9390E0FC01E455FE4FB6
:1005C0002491FC01EE50FE4F8491882349F190E084
:1005D000880F991FFC01EE5AFD4FA591B491885CDC
:1005E0009D4FFC01C591D4919FB7611108C0F8944B
:1005F0008C91209582238C93888182230AC062305B
:1006000051F4F8948C91322F309583238C93888108
:10061000822B888304C0F8948C91822B8C939FBF8B
:10062000DF91CF9108950F931F93CF93DF931F9284
:10063000CDB7DEB7282F30E0F901EA59FE4F84919B
:10064000F901E455FE4F1491F901EE50FE4F04916B
:100650000023C9F0882321F069830E948A026981FE
:10066000E02FF0E0EE0FFF1FE85CFD4FA591B49185
:100670009FB7F8948C91611103C01095812301C03C
:10068000812B8C939FBF0F90DF91CF911F910F9182
:100690000895CF92DF92EF92FF920F931F93CF9323
:1006A000DF936C017A01EB01E60EF71E00E010E02B
:1006B000CE15DF0561F06991D601ED91FC910190B5
:1006C000F081E02DC6011995080F191FF1CFC8015F
:1006D000DF91CF911F910F91FF90EF90DF90CF901E
:1006E00008956115710581F0DB010D900020E9F797
:1006F000AD0141505109461B570BDC01ED91FC91B6
:100700000280F381E02D199480E090E00895DC01EF
:10071000ED91FC910190F081E02D19940F931F93BE
:10072000CF93DF93EC016DE00E9487038C016AE0B8
:10073000CE010E948703800F911FDF91CF911F91FF
:100740000F9108950F931F93CF93DF93EC010E94B5
:1007500071038C01CE010E948E03800F911FDF91E7
:10076000CF911F910F9108950E9428020E946A0163
:10077000CBE3D5E00E9477012097E1F30E943B058F
:10078000F9CFFC0124853585F901E05CFF4F8081BC
:100790009181329620813181821B930B8F7399272F
:1007A0000895FC0184859585FC01E05CFF4F408144
:1007B00051813296208131814217530741F00190D7
:1007C000F081E02DE80FF91F808190E008958FEF10
:1007D0009FEF0895FC0184859585FC01E05CFF4F47
:1007E000408151813296208131814217530779F03F
:1007F000A081B181A80FB91F8C91208131812F5F19
:100800003F4F2F7333273183208390E008958FEF7C
:100810009FEF0895FC0181A1882329F0A489B5895F
:100820008C9186FFFBCF11A20895CF93DF93FC013B
:1008300026853785D901A05CBF4F8D919C9111977A
:1008400001968F739927E901CE5BDF4F488159816B
:1008500084179507D9F30D90BC91A02DA20FB31F5B
:100860006C93A685B785A05CBF4F11969C938E9321
:10087000A689B7892C9181E090E0078C02C0880F8F
:10088000991F0A94E2F7282B2C9381E081A3048816
:10089000F589E02D80818064808381E090E0DF91A4
:1008A000CF910895FB01E05CFF4F208131812F5FE4
:1008B0003F4F2F733327DB01AE5BBF4F4D915C91F0
:1008C0002417350739F0A081B181A60FB71F8C938B
:1008D00031832083089508951F920F920FB60F92CF
:1008E00011240BB60F922F933F934F935F936F9307
:1008F0007F938F939F93AF93BF93EF93FF938091D9
:10090000C00082FD07C08091C6006DE874E00E94BF
:10091000520402C08091C600FF91EF91BF91AF9148
:100920009F918F917F916F915F914F913F912F9107
:100930000F900BBE0F900FBE0F901F90189508954B
:100940001F920F920FB60F9211240BB60F922F9396
:100950003F934F935F936F937F938F939F93AF9347
:10096000BF93EF93FF938091C80082FD07C08091F1
:10097000CE0065E074E00E94520402C08091CE0077
:10098000FF91EF91BF91AF919F918F917F916F9167
:100990005F914F913F912F910F900BBE0F900FBE23
:1009A0000F901F90189508951F920F920FB60F92F7
:1009B00011240BB60F922F933F934F935F936F9336
:1009C0007F938F939F93AF93BF93EF93FF93809108
:1009D000D00082FD07C08091D6006DE773E00E94D1
:1009E000520402C08091D600FF91EF91BF91AF9168
:1009F0009F918F917F916F915F914F913F912F9137
:100A00000F900BBE0F900FBE0F901F90189508957A
:100A10001F920F920FB60F9211240BB60F922F93C5
:100A20003F934F935F936F937F938F939F93AF9376
:100A3000BF93EF93FF938091300182FD07C08091B7
:100A4000360165EF72E00E94520402C080913601C7
:100A5000FF91EF91BF91AF919F918F917F916F9196
:100A60005F914F913F912F910F900BBE0F900FBE52
:100A70000F901F9018958FE892E00E94C103892B78
:100A800011F00E946B048DE692E00E94C103892B55
:100A900011F00E949F048BE492E00E94C103892B15
:100AA00011F00E94D30489E292E00E94C103892BD5
:100AB00011F00C94070508951F920F920FB60F9234
:100AC00011240BB60F922F933F938F939F93EF9325
:100AD000FF932091890430918A0480918B04909136
:100AE0008C042817390731F48091C1008F7D8093E1
:100AF000C10014C0E0918B04F0918C04E75BFB4FC4
:100B0000208180918B0490918C0401968F7399279A
:100B100090938C0480938B042093C600FF91EF91F7
:100B20009F918F913F912F910F900BBE0F900FBE11
:100B30000F901F9018951F920F920FB60F921124CD
:100B40000BB60F922F933F938F939F93EF93FF9347
:100B500020910104309102048091030490910404D7
:100B60002817390731F48091C9008F7D8093C9001F
:100B700014C0E0910304F0910404EF53FC4F208172
:100B8000809103049091040401968F7399279093A8
:100B90000404809303042093CE00FF91EF919F9172
:100BA0008F913F912F910F900BBE0F900FBE0F9022
:100BB0001F9018951F920F920FB60F9211240BB62B
:100BC0000F922F933F938F939F93EF93FF932091D7
:100BD000790330917A0380917B0390917C032817ED
:100BE000390731F48091D1008F7D8093D10014C0FA
:100BF000E0917B03F0917C03E75CFC4F20818091C6
:100C00007B0390917C0301968F73992790937C03CB
:100C100080937B032093D600FF91EF919F918F915A
:100C20003F912F910F900BBE0F900FBE0F901F9012
:100C300018951F920F920FB60F9211240BB60F92B8
:100C40002F933F938F939F93EF93FF932091F10204
:100C50003091F2028091F3029091F4022817390743
:100C600031F4809131018F7D8093310114C0E09186
:100C7000F302F091F402EF54FD4F20818091F302D2
:100C80009091F40201968F7399279093F4028093C8
:100C9000F30220933601FF91EF919F918F913F9145
:100CA0002F910F900BBE0F900FBE0F901F901895B5
:100CB000CF92DF92EF92FF92CF93DF93EC016A0124
:100CC0007B01EC89FD8981E090E008A002C0880FDB
:100CD000991F0A94E2F7808360EA75E286E290E069
:100CE000A70196010E940C082150310941095109C0
:100CF0005695479537952795211580E1380798F047
:100D0000EC89FD89108260ED72E183E190E0A7013A
:100D100096010E940C08215031094109510956954C
:100D2000479537952795E889F9893083EA89FB89C2
:100D3000208319A2EE89FF89408181E090E09C0127
:100D40000C8C02C0220F331F0A94E2F7422B40831F
:100D5000EE89FF8940819C010D8C02C0220F331F58
:100D60000A94E2F7422B4083EE89FF8940819C017F
:100D70000E8C02C0220F331F0A94E2F7422B4083ED
:100D8000EE89FF8920810F8C02C0880F991F0A9479
:100D9000E2F7809582238083DF91CF91FF90EF90DF
:100DA000DF90CF900895CF9310929202109291020B
:100DB00088EE93E0A0E0B0E08093930290939402D9
:100DC000A0939502B093960223E132E03093900213
:100DD00020938F024DE854E050939C0240939B0275
:100DE00049E454E050939E0240939D0245EC50E04C
:100DF0005093A00240939F0244EC50E05093A20213
:100E00004093A10240EC50E05093A4024093A3020F
:100E100041EC50E05093A6024093A50242EC50E012
:100E20005093A8024093A70246EC50E05093AA02C8
:100E30004093A902C4E0C093AB02F3E0F093AC028C
:100E4000E7E0E093AD0275E07093AE0261E060937D
:100E5000AF021092700210926F0280937102909311
:100E60007202A0937302B093740230936E022093C7
:100E70006D0245E054E050937A024093790241ECD0
:100E800053E050937C0240937B024DEC50E0509332
:100E90007E0240937D024CEC50E0509380024093E0
:100EA0007F0248EC50E0509382024093810249EC6B
:100EB00050E050938402409383024AEC50E05093F8
:100EC0008602409385024EEC50E050938802409396
:100ED0008702C0938902F0938A02E0938B02709399
:100EE0008C0260938D0210924E0210924D028093FC
:100EF0004F0290935002A0935102B093520230934C
:100F00004C0220934B024DE753E05093580240931C
:100F1000570249E353E050935A024093590245ED7A
:100F200050E050935C0240935B0244ED50E05093DC
:100F30005E0240935D0240ED50E0509360024093AA
:100F40005F0241ED50E0509362024093610242ED36
:100F500050E0509364024093630246ED50E050939A
:100F6000660240936502C0936702F0936802E093C3
:100F7000690270936A0260936B0210922C021092C5
:100F80002B0280932D0290932E02A0932F02B093F8
:100F9000300230932A022093290285EF92E0909349
:100FA00036028093350281EB92E090933802809371
:100FB000370285E391E090933A028093390284E30B
:100FC00091E090933C0280933B0280E391E0909308
:100FD0003E0280933D0281E391E090934002809332
:100FE0003F0282E391E0909342028093410286E3C4
:100FF00091E09093440280934302C0934502F093A2
:101000004602E09347027093480260934902CF91F1
:101010000895F8940C945208A1E21A2EAA1BBB1B47
:10102000FD010DC0AA1FBB1FEE1FFF1FA217B307B4
:10103000E407F50720F0A21BB30BE40BF50B661FCA
:10104000771F881F991F1A9469F76095709580958E
:1010500090959B01AC01BD01CF010895EE0FFF1FDC
:101060000590F491E02D19940E944308A59F900DDE
:10107000B49F900DA49F800D911D11240895079099
:10108000F691E02D1994A29FB001B39FC001A39FD8
:10109000700D811D1124911DB29F700D811D1124B1
:0810A000911D0895F894FFCFA3
:1010A8000D0048656C6C6F20776F726C64210000CE
:1010B80000000015044903C103EA03D1030A040030
:00000001FF
